{
  "contractName": "Donor",
  "abi": [
    {
      "inputs": [],
      "stateMutability": "nonpayable",
      "type": "constructor"
    },
    {
      "anonymous": false,
      "inputs": [
        {
          "indexed": true,
          "internalType": "address",
          "name": "donor",
          "type": "address"
        },
        {
          "indexed": false,
          "internalType": "string",
          "name": "name",
          "type": "string"
        },
        {
          "indexed": false,
          "internalType": "string",
          "name": "bloodType",
          "type": "string"
        }
      ],
      "name": "DonorRegistered",
      "type": "event"
    },
    {
      "anonymous": false,
      "inputs": [
        {
          "indexed": true,
          "internalType": "address",
          "name": "donor",
          "type": "address"
        },
        {
          "indexed": false,
          "internalType": "enum Donor.DonorStatus",
          "name": "status",
          "type": "uint8"
        }
      ],
      "name": "DonorStatusUpdated",
      "type": "event"
    },
    {
      "anonymous": false,
      "inputs": [
        {
          "indexed": true,
          "internalType": "address",
          "name": "donor",
          "type": "address"
        }
      ],
      "name": "PreferencesUpdated",
      "type": "event"
    },
    {
      "inputs": [
        {
          "internalType": "address",
          "name": "",
          "type": "address"
        }
      ],
      "name": "donors",
      "outputs": [
        {
          "internalType": "string",
          "name": "name",
          "type": "string"
        },
        {
          "internalType": "uint256",
          "name": "age",
          "type": "uint256"
        },
        {
          "internalType": "string",
          "name": "bloodType",
          "type": "string"
        },
        {
          "internalType": "string",
          "name": "medicalHistoryHash",
          "type": "string"
        },
        {
          "components": [
            {
              "internalType": "bool",
              "name": "heart",
              "type": "bool"
            },
            {
              "internalType": "bool",
              "name": "liver",
              "type": "bool"
            },
            {
              "internalType": "bool",
              "name": "kidneys",
              "type": "bool"
            }
          ],
          "internalType": "struct Donor.DonationPreferences",
          "name": "preferences",
          "type": "tuple"
        },
        {
          "internalType": "enum Donor.DonorStatus",
          "name": "status",
          "type": "uint8"
        }
      ],
      "stateMutability": "view",
      "type": "function",
      "constant": true
    },
    {
      "inputs": [],
      "name": "owner",
      "outputs": [
        {
          "internalType": "address",
          "name": "",
          "type": "address"
        }
      ],
      "stateMutability": "view",
      "type": "function",
      "constant": true
    },
    {
      "inputs": [
        {
          "internalType": "address",
          "name": "donorAddress",
          "type": "address"
        },
        {
          "internalType": "string",
          "name": "name",
          "type": "string"
        },
        {
          "internalType": "uint256",
          "name": "age",
          "type": "uint256"
        },
        {
          "internalType": "string",
          "name": "bloodType",
          "type": "string"
        },
        {
          "internalType": "string",
          "name": "medicalHistoryHash",
          "type": "string"
        },
        {
          "components": [
            {
              "internalType": "bool",
              "name": "heart",
              "type": "bool"
            },
            {
              "internalType": "bool",
              "name": "liver",
              "type": "bool"
            },
            {
              "internalType": "bool",
              "name": "kidneys",
              "type": "bool"
            }
          ],
          "internalType": "struct Donor.DonationPreferences",
          "name": "prefs",
          "type": "tuple"
        }
      ],
      "name": "registerDonor",
      "outputs": [],
      "stateMutability": "nonpayable",
      "type": "function"
    },
    {
      "inputs": [
        {
          "internalType": "address",
          "name": "donorAddress",
          "type": "address"
        },
        {
          "internalType": "enum Donor.DonorStatus",
          "name": "status",
          "type": "uint8"
        }
      ],
      "name": "updateDonorStatus",
      "outputs": [],
      "stateMutability": "nonpayable",
      "type": "function"
    },
    {
      "inputs": [
        {
          "internalType": "address",
          "name": "donorAddress",
          "type": "address"
        }
      ],
      "name": "getDonorInfo",
      "outputs": [
        {
          "components": [
            {
              "internalType": "string",
              "name": "name",
              "type": "string"
            },
            {
              "internalType": "uint256",
              "name": "age",
              "type": "uint256"
            },
            {
              "internalType": "string",
              "name": "bloodType",
              "type": "string"
            },
            {
              "internalType": "string",
              "name": "medicalHistoryHash",
              "type": "string"
            },
            {
              "components": [
                {
                  "internalType": "bool",
                  "name": "heart",
                  "type": "bool"
                },
                {
                  "internalType": "bool",
                  "name": "liver",
                  "type": "bool"
                },
                {
                  "internalType": "bool",
                  "name": "kidneys",
                  "type": "bool"
                }
              ],
              "internalType": "struct Donor.DonationPreferences",
              "name": "preferences",
              "type": "tuple"
            },
            {
              "internalType": "enum Donor.DonorStatus",
              "name": "status",
              "type": "uint8"
            }
          ],
          "internalType": "struct Donor.DonorData",
          "name": "",
          "type": "tuple"
        }
      ],
      "stateMutability": "view",
      "type": "function",
      "constant": true
    },
    {
      "inputs": [
        {
          "internalType": "address",
          "name": "donorAddress",
          "type": "address"
        }
      ],
      "name": "deactivateDonor",
      "outputs": [],
      "stateMutability": "nonpayable",
      "type": "function"
    },
    {
      "inputs": [
        {
          "internalType": "address",
          "name": "donorAddress",
          "type": "address"
        },
        {
          "components": [
            {
              "internalType": "bool",
              "name": "heart",
              "type": "bool"
            },
            {
              "internalType": "bool",
              "name": "liver",
              "type": "bool"
            },
            {
              "internalType": "bool",
              "name": "kidneys",
              "type": "bool"
            }
          ],
          "internalType": "struct Donor.DonationPreferences",
          "name": "prefs",
          "type": "tuple"
        }
      ],
      "name": "updateDonorPreferences",
      "outputs": [],
      "stateMutability": "nonpayable",
      "type": "function"
    }
  ],
  "bytecode": "0x608060405234801561001057600080fd5b50600080546001600160a01b03191633179055611164806100326000396000f3fe608060405234801561001057600080fd5b506004361061007d5760003560e01c8063b76863a81161005b578063b76863a8146100da578063c46a60a5146100ed578063ca0cdea81461010d578063da1fda381461013257600080fd5b80631b6eb66c146100825780638da5cb5b14610097578063a8f42170146100c7575b600080fd5b610095610090366004610b66565b610145565b005b6000546100aa906001600160a01b031681565b6040516001600160a01b0390911681526020015b60405180910390f35b6100956100d5366004610c36565b610265565b6100956100e8366004610c6a565b610390565b6101006100fb366004610c6a565b610489565b6040516100be9190610d0a565b61012061011b366004610c6a565b610726565b6040516100be96959493929190610db6565b610095610140366004610ec7565b610928565b6000546001600160a01b031633146101a45760405162461bcd60e51b815260206004820152601860248201527f4f6e6c79206f776e65722063616e2063616c6c2074686973000000000000000060448201526064015b60405180910390fd5b6001600160a01b0382166000908152600160208190526040909120015482906101df5760405162461bcd60e51b815260040161019b90610f7b565b6001600160a01b03831660009081526001602081905260409091206005018054849260ff199091169083600381111561021a5761021a610cd2565b0217905550826001600160a01b03167f663540b0fc89e3a5cdb3d7eac48c202a18768456e803e932399bbf8762647e04836040516102589190610fa9565b60405180910390a2505050565b6001600160a01b0382166000908152600160208190526040909120015482906102a05760405162461bcd60e51b815260040161019b90610f7b565b336001600160a01b038416146103025760405162461bcd60e51b815260206004820152602160248201527f4f6e6c7920646f6e6f722063616e2075706461746520707265666572656e63656044820152607360f81b606482015260840161019b565b6001600160a01b038316600081815260016020908152604080832086516004909101805493880151838901511515620100000262ff0000199115156101000261ff00199415159490941661ffff1990961695909517929092179190911692909217909155517fd8cc1df82fdc2d52697dbbacba0314a7fcf6dde2888f83ecea95bc6ce897dfaa9190a2505050565b6001600160a01b0381166000908152600160208190526040909120015481906103cb5760405162461bcd60e51b815260040161019b90610f7b565b336001600160a01b03831614806103ec57506000546001600160a01b031633145b6104275760405162461bcd60e51b815260206004820152600c60248201526b155b985d5d1a1bdc9a5e995960a21b604482015260640161019b565b6001600160a01b038216600081815260016020819052604091829020600501805460ff19168217905590517f663540b0fc89e3a5cdb3d7eac48c202a18768456e803e932399bbf8762647e049161047d91610fa9565b60405180910390a25050565b610491610aed565b6001600160a01b0382166000908152600160208190526040909120015482906104cc5760405162461bcd60e51b815260040161019b90610f7b565b6001600160a01b03831660009081526001602052604090819020815160c081019092528054829082906104fe90610fbd565b80601f016020809104026020016040519081016040528092919081815260200182805461052a90610fbd565b80156105775780601f1061054c57610100808354040283529160200191610577565b820191906000526020600020905b81548152906001019060200180831161055a57829003601f168201915b505050505081526020016001820154815260200160028201805461059a90610fbd565b80601f01602080910402602001604051908101604052809291908181526020018280546105c690610fbd565b80156106135780601f106105e857610100808354040283529160200191610613565b820191906000526020600020905b8154815290600101906020018083116105f657829003601f168201915b5050505050815260200160038201805461062c90610fbd565b80601f016020809104026020016040519081016040528092919081815260200182805461065890610fbd565b80156106a55780601f1061067a576101008083540402835291602001916106a5565b820191906000526020600020905b81548152906001019060200180831161068857829003601f168201915b505050918352505060408051606081018252600484015460ff80821615158352610100820481161515602084810191909152620100009092048116151583850152908401919091526005840154919092019116600381111561070957610709610cd2565b600381111561071a5761071a610cd2565b90525091505b50919050565b60016020526000908152604090208054819061074190610fbd565b80601f016020809104026020016040519081016040528092919081815260200182805461076d90610fbd565b80156107ba5780601f1061078f576101008083540402835291602001916107ba565b820191906000526020600020905b81548152906001019060200180831161079d57829003601f168201915b5050505050908060010154908060020180546107d590610fbd565b80601f016020809104026020016040519081016040528092919081815260200182805461080190610fbd565b801561084e5780601f106108235761010080835404028352916020019161084e565b820191906000526020600020905b81548152906001019060200180831161083157829003601f168201915b50505050509080600301805461086390610fbd565b80601f016020809104026020016040519081016040528092919081815260200182805461088f90610fbd565b80156108dc5780601f106108b1576101008083540402835291602001916108dc565b820191906000526020600020905b8154815290600101906020018083116108bf57829003601f168201915b505060408051606081018252600487015460ff80821615158352610100820481161515602084015262010000909104811615159282019290925260059096015494959416925088915050565b6001600160a01b03861660009081526001602081905260409091200154156109925760405162461bcd60e51b815260206004820152601860248201527f446f6e6f7220616c726561647920726567697374657265640000000000000000604482015260640161019b565b6040518060c00160405280868152602001858152602001848152602001838152602001828152602001600060038111156109ce576109ce610cd2565b90526001600160a01b0387166000908152600160205260409020815181906109f69082611040565b506020820151600182015560408201516002820190610a159082611040565b5060608201516003820190610a2a9082611040565b506080820151805160048301805460208401516040909401511515620100000262ff0000199415156101000261ff00199415159490941661ffff1990921691909117929092179290921617905560a082015160058201805460ff19166001836003811115610a9a57610a9a610cd2565b0217905550905050856001600160a01b03167f7cefa9d45415496742c108166cfd8e4bae2f2089a47b4b375e65d407bdbdace58685604051610add929190611100565b60405180910390a2505050505050565b6040518060c0016040528060608152602001600081526020016060815260200160608152602001610b3e60405180606001604052806000151581526020016000151581526020016000151581525090565b81526020016000905290565b80356001600160a01b0381168114610b6157600080fd5b919050565b60008060408385031215610b7957600080fd5b610b8283610b4a565b9150602083013560048110610b9657600080fd5b809150509250929050565b634e487b7160e01b600052604160045260246000fd5b80358015158114610b6157600080fd5b600060608284031215610bd957600080fd5b6040516060810181811067ffffffffffffffff82111715610bfc57610bfc610ba1565b604052905080610c0b83610bb7565b8152610c1960208401610bb7565b6020820152610c2a60408401610bb7565b60408201525092915050565b60008060808385031215610c4957600080fd5b610c5283610b4a565b9150610c618460208501610bc7565b90509250929050565b600060208284031215610c7c57600080fd5b610c8582610b4a565b9392505050565b6000815180845260005b81811015610cb257602081850181015186830182015201610c96565b506000602082860101526020601f19601f83011685010191505092915050565b634e487b7160e01b600052602160045260246000fd5b60048110610d0657634e487b7160e01b600052602160045260246000fd5b9052565b6020815260008251610100806020850152610d29610120850183610c8c565b9150602085015160408501526040850151601f1980868503016060870152610d518483610c8c565b9350606087015191508086850301608087015250610d6f8382610c8c565b60808701518051151560a08801526020810151151560c08801526040810151151560e088015290935090505060a0850151610dac82860182610ce8565b5090949350505050565b6000610100808352610dca8184018a610c8c565b90508760208401528281036040840152610de48188610c8c565b90508281036060840152610df88187610c8c565b8551151560808501526020860151151560a08501526040860151151560c08501529150610e229050565b610e2f60e0830184610ce8565b979650505050505050565b600082601f830112610e4b57600080fd5b813567ffffffffffffffff80821115610e6657610e66610ba1565b604051601f8301601f19908116603f01168101908282118183101715610e8e57610e8e610ba1565b81604052838152866020858801011115610ea757600080fd5b836020870160208301376000602085830101528094505050505092915050565b6000806000806000806101008789031215610ee157600080fd5b610eea87610b4a565b9550602087013567ffffffffffffffff80821115610f0757600080fd5b610f138a838b01610e3a565b9650604089013595506060890135915080821115610f3057600080fd5b610f3c8a838b01610e3a565b94506080890135915080821115610f5257600080fd5b50610f5f89828a01610e3a565b925050610f6f8860a08901610bc7565b90509295509295509295565b602080825260149082015273111bdb9bdc881b9bdd081c9959da5cdd195c995960621b604082015260600190565b60208101610fb78284610ce8565b92915050565b600181811c90821680610fd157607f821691505b60208210810361072057634e487b7160e01b600052602260045260246000fd5b601f82111561103b57600081815260208120601f850160051c810160208610156110185750805b601f850160051c820191505b8181101561103757828155600101611024565b5050505b505050565b815167ffffffffffffffff81111561105a5761105a610ba1565b61106e816110688454610fbd565b84610ff1565b602080601f8311600181146110a3576000841561108b5750858301515b600019600386901b1c1916600185901b178555611037565b600085815260208120601f198616915b828110156110d2578886015182559484019460019091019084016110b3565b50858210156110f05787850151600019600388901b60f8161c191681555b5050505050600190811b01905550565b6040815260006111136040830185610c8c565b82810360208401526111258185610c8c565b9594505050505056fea2646970667358221220f78ab3d53b934b78f30c9d8f1bb397602d589f913287597c6a2e7420d9bacc9764736f6c63430008140033",
  "immutableReferences": {},
  "source": "// SPDX-License-Identifier: MIT\r\npragma solidity ^0.8.20;\r\n\r\ncontract Donor {\r\n    address public owner;\r\n\r\n    // Enum for donor status\r\n    enum DonorStatus { Active, Deactivated, Matched, Deceased }\r\n\r\n    // Struct for organ preferences\r\n    struct DonationPreferences {\r\n        bool heart;\r\n        bool liver;\r\n        bool kidneys;\r\n    }\r\n\r\n    // Struct for donor data\r\n    struct DonorData {\r\n        string name;\r\n        uint256 age;\r\n        string bloodType;\r\n        string medicalHistoryHash; // Can store IPFS hash for privacy\r\n        DonationPreferences preferences;\r\n        DonorStatus status;\r\n    }\r\n\r\n    // Mapping donor address  DonorData\r\n    mapping(address => DonorData) public donors;\r\n\r\n    // Events for frontend and logs\r\n    event DonorRegistered(address indexed donor, string name, string bloodType);\r\n    event DonorStatusUpdated(address indexed donor, DonorStatus status);\r\n    event PreferencesUpdated(address indexed donor);\r\n\r\n    // Constructor sets contract owner\r\n    constructor() {\r\n        owner = msg.sender;\r\n    }\r\n\r\n    // Modifiers\r\n    modifier onlyOwner() {\r\n        require(msg.sender == owner, \"Only owner can call this\");\r\n        _;\r\n    }\r\n\r\n    modifier onlyRegisteredDonor(address donorAddress) {\r\n        require(donors[donorAddress].age > 0, \"Donor not registered\");\r\n        _;\r\n    }\r\n\r\n    // Register a new donor\r\n    function registerDonor(\r\n        address donorAddress,\r\n        string memory name,\r\n        uint256 age,\r\n        string memory bloodType,\r\n        string memory medicalHistoryHash,\r\n        DonationPreferences memory prefs\r\n    ) external {\r\n        require(donors[donorAddress].age == 0, \"Donor already registered\");\r\n        donors[donorAddress] = DonorData({\r\n            name: name,\r\n            age: age,\r\n            bloodType: bloodType,\r\n            medicalHistoryHash: medicalHistoryHash,\r\n            preferences: prefs,\r\n            status: DonorStatus.Active\r\n        });\r\n\r\n        emit DonorRegistered(donorAddress, name, bloodType);\r\n    }\r\n  \r\n\r\n  \r\n    // Update donor status (admin only)\r\n    function updateDonorStatus(address donorAddress, DonorStatus status)\r\n        external\r\n        onlyOwner\r\n        onlyRegisteredDonor(donorAddress)\r\n    {\r\n        donors[donorAddress].status = status;\r\n        emit DonorStatusUpdated(donorAddress, status);\r\n    }\r\n\r\n    // Get donor information\r\n    function getDonorInfo(address donorAddress)\r\n        external\r\n        view\r\n        onlyRegisteredDonor(donorAddress)\r\n        returns (DonorData memory)\r\n    {\r\n        return donors[donorAddress];\r\n    }\r\n\r\n    // Deactivate donor (donor or owner)\r\n    function deactivateDonor(address donorAddress)\r\n        external\r\n        onlyRegisteredDonor(donorAddress)\r\n    {\r\n        require(msg.sender == donorAddress || msg.sender == owner, \"Unauthorized\");\r\n        donors[donorAddress].status = DonorStatus.Deactivated;\r\n        emit DonorStatusUpdated(donorAddress, DonorStatus.Deactivated);\r\n    }\r\n\r\n    // Update preferences (only donor)\r\n    function updateDonorPreferences(address donorAddress, DonationPreferences memory prefs)\r\n        external\r\n        onlyRegisteredDonor(donorAddress)\r\n    {\r\n        require(msg.sender == donorAddress, \"Only donor can update preferences\");\r\n        donors[donorAddress].preferences = prefs;\r\n        emit PreferencesUpdated(donorAddress);\r\n    }\r\n}\r\n",
  "sourcePath": "D:\\Coursera\\OrganDonationSystem31st August\\OrganDonationSystem\\contracts\\Donor.sol",
  "compiler": {
    "name": "solc",
    "version": "0.8.20+commit.a1b79de6.Linux.g++"
  },
  "schemaVersion": "3.4.16",
  "updatedAt": "2025-09-15T09:24:23.551Z",
  "networkType": "ethereum",
  "devdoc": {
    "kind": "dev",
    "methods": {},
    "version": 1
  },
  "userdoc": {
    "kind": "user",
    "methods": {},
    "version": 1
  }
}