{
  "contractName": "Hospital",
  "abi": [
    {
      "inputs": [],
      "stateMutability": "nonpayable",
      "type": "constructor"
    },
    {
      "inputs": [],
      "name": "AlreadyRegistered",
      "type": "error"
    },
    {
      "inputs": [],
      "name": "NotOwner",
      "type": "error"
    },
    {
      "inputs": [],
      "name": "NotRegistered",
      "type": "error"
    },
    {
      "inputs": [],
      "name": "NotVerified",
      "type": "error"
    },
    {
      "inputs": [],
      "name": "Unauthorized",
      "type": "error"
    },
    {
      "inputs": [],
      "name": "ZeroAddress",
      "type": "error"
    },
    {
      "anonymous": false,
      "inputs": [
        {
          "indexed": true,
          "internalType": "address",
          "name": "hospital",
          "type": "address"
        },
        {
          "indexed": false,
          "internalType": "enum Hospital.OrganType",
          "name": "organ",
          "type": "uint8"
        },
        {
          "indexed": false,
          "internalType": "uint256",
          "name": "capacity",
          "type": "uint256"
        }
      ],
      "name": "HospitalCapacityUpdated",
      "type": "event"
    },
    {
      "anonymous": false,
      "inputs": [
        {
          "indexed": true,
          "internalType": "address",
          "name": "hospital",
          "type": "address"
        }
      ],
      "name": "HospitalInfoUpdated",
      "type": "event"
    },
    {
      "anonymous": false,
      "inputs": [
        {
          "indexed": true,
          "internalType": "address",
          "name": "hospital",
          "type": "address"
        }
      ],
      "name": "HospitalRegistered",
      "type": "event"
    },
    {
      "anonymous": false,
      "inputs": [
        {
          "indexed": true,
          "internalType": "address",
          "name": "hospital",
          "type": "address"
        }
      ],
      "name": "HospitalVerified",
      "type": "event"
    },
    {
      "anonymous": false,
      "inputs": [
        {
          "indexed": true,
          "internalType": "address",
          "name": "hospital",
          "type": "address"
        },
        {
          "indexed": true,
          "internalType": "address",
          "name": "staff",
          "type": "address"
        },
        {
          "indexed": false,
          "internalType": "enum Hospital.Role",
          "name": "role",
          "type": "uint8"
        }
      ],
      "name": "StaffAuthorized",
      "type": "event"
    },
    {
      "inputs": [],
      "name": "owner",
      "outputs": [
        {
          "internalType": "address",
          "name": "",
          "type": "address"
        }
      ],
      "stateMutability": "view",
      "type": "function",
      "constant": true
    },
    {
      "inputs": [
        {
          "internalType": "address",
          "name": "hospitalAddress",
          "type": "address"
        },
        {
          "components": [
            {
              "internalType": "string",
              "name": "name",
              "type": "string"
            },
            {
              "internalType": "string",
              "name": "location",
              "type": "string"
            },
            {
              "internalType": "string",
              "name": "licenseId",
              "type": "string"
            },
            {
              "internalType": "bool",
              "name": "isVerified",
              "type": "bool"
            }
          ],
          "internalType": "struct Hospital.HospitalData",
          "name": "hospitalInfo",
          "type": "tuple"
        }
      ],
      "name": "registerHospital",
      "outputs": [],
      "stateMutability": "nonpayable",
      "type": "function"
    },
    {
      "inputs": [
        {
          "internalType": "address",
          "name": "hospitalAddress",
          "type": "address"
        },
        {
          "internalType": "bytes",
          "name": "credentials",
          "type": "bytes"
        }
      ],
      "name": "verifyHospitalCredentials",
      "outputs": [],
      "stateMutability": "nonpayable",
      "type": "function"
    },
    {
      "inputs": [
        {
          "internalType": "address",
          "name": "hospitalAddress",
          "type": "address"
        }
      ],
      "name": "getHospitalInfo",
      "outputs": [
        {
          "components": [
            {
              "internalType": "string",
              "name": "name",
              "type": "string"
            },
            {
              "internalType": "string",
              "name": "location",
              "type": "string"
            },
            {
              "internalType": "string",
              "name": "licenseId",
              "type": "string"
            },
            {
              "internalType": "bool",
              "name": "isVerified",
              "type": "bool"
            }
          ],
          "internalType": "struct Hospital.HospitalData",
          "name": "",
          "type": "tuple"
        }
      ],
      "stateMutability": "view",
      "type": "function",
      "constant": true
    },
    {
      "inputs": [
        {
          "internalType": "address",
          "name": "hospitalAddress",
          "type": "address"
        },
        {
          "internalType": "enum Hospital.OrganType",
          "name": "organType",
          "type": "uint8"
        },
        {
          "internalType": "uint256",
          "name": "capacity",
          "type": "uint256"
        }
      ],
      "name": "updateHospitalCapacity",
      "outputs": [],
      "stateMutability": "nonpayable",
      "type": "function"
    },
    {
      "inputs": [
        {
          "internalType": "address",
          "name": "hospitalAddress",
          "type": "address"
        },
        {
          "internalType": "address",
          "name": "staffAddress",
          "type": "address"
        },
        {
          "internalType": "enum Hospital.Role",
          "name": "role",
          "type": "uint8"
        }
      ],
      "name": "authorizeHospitalStaff",
      "outputs": [],
      "stateMutability": "nonpayable",
      "type": "function"
    },
    {
      "inputs": [
        {
          "internalType": "address",
          "name": "hospitalAddress",
          "type": "address"
        },
        {
          "internalType": "address",
          "name": "staffAddress",
          "type": "address"
        }
      ],
      "name": "getStaffRole",
      "outputs": [
        {
          "internalType": "enum Hospital.Role",
          "name": "",
          "type": "uint8"
        }
      ],
      "stateMutability": "view",
      "type": "function",
      "constant": true
    },
    {
      "inputs": [
        {
          "internalType": "address",
          "name": "hospitalAddress",
          "type": "address"
        },
        {
          "internalType": "enum Hospital.OrganType",
          "name": "organType",
          "type": "uint8"
        }
      ],
      "name": "getHospitalCapacity",
      "outputs": [
        {
          "internalType": "uint256",
          "name": "",
          "type": "uint256"
        }
      ],
      "stateMutability": "view",
      "type": "function",
      "constant": true
    },
    {
      "inputs": [
        {
          "internalType": "address",
          "name": "hospitalAddress",
          "type": "address"
        },
        {
          "internalType": "string",
          "name": "name",
          "type": "string"
        },
        {
          "internalType": "string",
          "name": "location_",
          "type": "string"
        },
        {
          "internalType": "string",
          "name": "licenseId",
          "type": "string"
        }
      ],
      "name": "updateHospitalCoreInfo",
      "outputs": [],
      "stateMutability": "nonpayable",
      "type": "function"
    },
    {
      "inputs": [
        {
          "internalType": "address",
          "name": "newOwner",
          "type": "address"
        }
      ],
      "name": "transferOwnership",
      "outputs": [],
      "stateMutability": "nonpayable",
      "type": "function"
    }
  ],
  "bytecode": "0x608060405234801561001057600080fd5b50600080546001600160a01b031916331790556112c3806100326000396000f3fe608060405234801561001057600080fd5b506004361061009e5760003560e01c8063a7a2fafe11610066578063a7a2fafe14610132578063a9bb7d5814610145578063b266c33f14610158578063c6ea735314610178578063f2fde38b1461019957600080fd5b806325cb1345146100a3578063604043e8146100b85780638486f67a146100cb5780638da5cb5b146100f45780639ee1abd21461011f575b600080fd5b6100b66100b1366004610baa565b6101ac565b005b6100b66100c6366004610c64565b610296565b6100de6100d9366004610ca0565b6103cf565b6040516100eb9190610d08565b60405180910390f35b600054610107906001600160a01b031681565b6040516001600160a01b0390911681526020016100eb565b6100b661012d366004610e2e565b610629565b6100b6610140366004610e90565b6106fa565b6100b6610153366004610efb565b610863565b61016b610166366004610fde565b6109e4565b6040516100eb9190611027565b61018b610186366004611041565b610a4f565b6040519081526020016100eb565b6100b66101a7366004610ca0565b610ad1565b6000546001600160a01b031633146101d7576040516330cd747160e01b815260040160405180910390fd5b6001600160a01b038716600090815260026020526040902054879060ff166102125760405163aba4733960e01b815260040160405180910390fd5b6001600160a01b038816600090815260016020526040902080610236888a836110ee565b50600181016102468688836110ee565b50600281016102568486836110ee565b506040516001600160a01b038a16907f9ea007ddc979227015b8855b2a234b79a58aa2bd9cdd257010402ad3d964b83990600090a2505050505050505050565b6001600160a01b038316600090815260026020526040902054839060ff166102d15760405163aba4733960e01b815260040160405180910390fd5b8360036001600160a01b038216600090815260046020908152604080832033845290915290205460ff16600381111561030c5761030c611011565b14801561032457506000546001600160a01b03163314155b15610341576040516282b42960e81b815260040160405180910390fd5b6001600160a01b0385166000908152600360205260408120849186600281111561036d5761036d611011565b60ff1660ff16815260200190815260200160002081905550846001600160a01b03167f79552fb27fb23c4dd632a01422bdc1acfac8373bc4d8ff2cf38929f0160e158b85856040516103c09291906111af565b60405180910390a25050505050565b6103fc60405180608001604052806060815260200160608152602001606081526020016000151581525090565b6001600160a01b038216600090815260026020526040902054829060ff166104375760405163aba4733960e01b815260040160405180910390fd5b6001600160a01b038316600090815260016020526040908190208151608081019092528054829082906104699061106b565b80601f01602080910402602001604051908101604052809291908181526020018280546104959061106b565b80156104e25780601f106104b7576101008083540402835291602001916104e2565b820191906000526020600020905b8154815290600101906020018083116104c557829003601f168201915b505050505081526020016001820180546104fb9061106b565b80601f01602080910402602001604051908101604052809291908181526020018280546105279061106b565b80156105745780601f1061054957610100808354040283529160200191610574565b820191906000526020600020905b81548152906001019060200180831161055757829003601f168201915b5050505050815260200160028201805461058d9061106b565b80601f01602080910402602001604051908101604052809291908181526020018280546105b99061106b565b80156106065780601f106105db57610100808354040283529160200191610606565b820191906000526020600020905b8154815290600101906020018083116105e957829003601f168201915b50505091835250506003919091015460ff16151560209091015291505b50919050565b6000546001600160a01b03163314610654576040516330cd747160e01b815260040160405180910390fd5b6001600160a01b038216600090815260026020526040902054829060ff1661068f5760405163aba4733960e01b815260040160405180910390fd5b81516020808401919091206001600160a01b038516600081815260058452604080822093909355600193849052828120600301805460ff1916909417909355905190917ff474af46ed77eb03872a0d016133655c67f732a6d73a90ea7403bd4a79f8bcdf91a2505050565b6001600160a01b038316600090815260026020526040902054839060ff166107355760405163aba4733960e01b815260040160405180910390fd5b6001600160a01b0380851660009081526004602090815260408083203380855292528220549154879360ff9093169216148015906107855750600081600381111561078257610782611011565b14155b156107a2576040516282b42960e81b815260040160405180910390fd5b6001600160a01b0385166107c95760405163d92e233d60e01b815260040160405180910390fd5b6001600160a01b038087166000908152600460209081526040808320938916835292905220805485919060ff1916600183600381111561080b5761080b611011565b0217905550846001600160a01b0316866001600160a01b03167fc25353b068fe2bfe51a73455f314145cf7ccee2b534763516db8f740a437a277866040516108539190611027565b60405180910390a3505050505050565b6000546001600160a01b0316331461088e576040516330cd747160e01b815260040160405180910390fd5b6001600160a01b0382166108b55760405163d92e233d60e01b815260040160405180910390fd5b6001600160a01b03821660009081526002602052604090205460ff16156108ef57604051630ea075bf60e21b815260040160405180910390fd5b60408051608081018252825181526020808401518183015283830151828401526000606083018190526001600160a01b03861681526001909152919091208151819061093b90826111cd565b506020820151600182019061095090826111cd565b506040820151600282019061096590826111cd565b50606091909101516003909101805491151560ff199283161790556001600160a01b0383166000818152600260209081526040808320805486166001179055600482528083209091528082208054909416909355915190917f380355b6fe4f9755ddcef7c5c195edae45bdb34953a41d82386022f3cd5899f091a25050565b6001600160a01b038216600090815260026020526040812054839060ff16610a1f5760405163aba4733960e01b815260040160405180910390fd5b50506001600160a01b03918216600090815260046020908152604080832093909416825291909152205460ff1690565b6001600160a01b038216600090815260026020526040812054839060ff16610a8a5760405163aba4733960e01b815260040160405180910390fd5b6001600160a01b038416600090815260036020526040812090846002811115610ab557610ab5611011565b60ff168152602081019190915260400160002054949350505050565b6000546001600160a01b03163314610afc576040516330cd747160e01b815260040160405180910390fd5b6001600160a01b038116610b235760405163d92e233d60e01b815260040160405180910390fd5b600080546001600160a01b0319166001600160a01b0392909216919091179055565b80356001600160a01b0381168114610b5c57600080fd5b919050565b60008083601f840112610b7357600080fd5b50813567ffffffffffffffff811115610b8b57600080fd5b602083019150836020828501011115610ba357600080fd5b9250929050565b60008060008060008060006080888a031215610bc557600080fd5b610bce88610b45565b9650602088013567ffffffffffffffff80821115610beb57600080fd5b610bf78b838c01610b61565b909850965060408a0135915080821115610c1057600080fd5b610c1c8b838c01610b61565b909650945060608a0135915080821115610c3557600080fd5b50610c428a828b01610b61565b989b979a50959850939692959293505050565b803560038110610b5c57600080fd5b600080600060608486031215610c7957600080fd5b610c8284610b45565b9250610c9060208501610c55565b9150604084013590509250925092565b600060208284031215610cb257600080fd5b610cbb82610b45565b9392505050565b6000815180845260005b81811015610ce857602081850181015186830182015201610ccc565b506000602082860101526020601f19601f83011685010191505092915050565b602081526000825160806020840152610d2460a0840182610cc2565b90506020840151601f1980858403016040860152610d428383610cc2565b9250604086015191508085840301606086015250610d608282610cc2565b9150506060840151151560808401528091505092915050565b634e487b7160e01b600052604160045260246000fd5b6040516080810167ffffffffffffffff81118282101715610db257610db2610d79565b60405290565b600067ffffffffffffffff80841115610dd357610dd3610d79565b604051601f8501601f19908116603f01168101908282118183101715610dfb57610dfb610d79565b81604052809350858152868686011115610e1457600080fd5b858560208301376000602087830101525050509392505050565b60008060408385031215610e4157600080fd5b610e4a83610b45565b9150602083013567ffffffffffffffff811115610e6657600080fd5b8301601f81018513610e7757600080fd5b610e8685823560208401610db8565b9150509250929050565b600080600060608486031215610ea557600080fd5b610eae84610b45565b9250610ebc60208501610b45565b9150604084013560048110610ed057600080fd5b809150509250925092565b600082601f830112610eec57600080fd5b610cbb83833560208501610db8565b60008060408385031215610f0e57600080fd5b610f1783610b45565b9150602083013567ffffffffffffffff80821115610f3457600080fd5b9084019060808287031215610f4857600080fd5b610f50610d8f565b823582811115610f5f57600080fd5b610f6b88828601610edb565b825250602083013582811115610f8057600080fd5b610f8c88828601610edb565b602083015250604083013582811115610fa457600080fd5b610fb088828601610edb565b604083015250606083013592508215158314610fcb57600080fd5b8260608201528093505050509250929050565b60008060408385031215610ff157600080fd5b610ffa83610b45565b915061100860208401610b45565b90509250929050565b634e487b7160e01b600052602160045260246000fd5b602081016004831061103b5761103b611011565b91905290565b6000806040838503121561105457600080fd5b61105d83610b45565b915061100860208401610c55565b600181811c9082168061107f57607f821691505b60208210810361062357634e487b7160e01b600052602260045260246000fd5b601f8211156110e957600081815260208120601f850160051c810160208610156110c65750805b601f850160051c820191505b818110156110e5578281556001016110d2565b5050505b505050565b67ffffffffffffffff83111561110657611106610d79565b61111a83611114835461106b565b8361109f565b6000601f84116001811461114e57600085156111365750838201355b600019600387901b1c1916600186901b1783556111a8565b600083815260209020601f19861690835b8281101561117f578685013582556020948501946001909201910161115f565b508682101561119c5760001960f88860031b161c19848701351681555b505060018560011b0183555b5050505050565b60408101600384106111c3576111c3611011565b9281526020015290565b815167ffffffffffffffff8111156111e7576111e7610d79565b6111fb816111f5845461106b565b8461109f565b602080601f83116001811461123057600084156112185750858301515b600019600386901b1c1916600185901b1785556110e5565b600085815260208120601f198616915b8281101561125f57888601518255948401946001909101908401611240565b508582101561127d5787850151600019600388901b60f8161c191681555b5050505050600190811b0190555056fea264697066735822122070a55a1fb5abbd95fdb5065d8388865a5ef978748d783421b764a09bea2663d864736f6c63430008140033",
  "immutableReferences": {},
  "source": "// SPDX-License-Identifier: MIT\r\npragma solidity ^0.8.20;\r\n\r\n/// @title Hospital / Institution Management for Global NFT-Based Organ Donation System\r\n/// @notice Follows the same owner/modifier/event-driven pattern as Donor.sol and Recipient.sol\r\n/// @dev Designed for Truffle + MetaMask deployments; no external dependencies.\r\ncontract Hospital {\r\n    /*//////////////////////////////////////////////////////////////\r\n                              OWNER & ERRORS\r\n    //////////////////////////////////////////////////////////////*/\r\n\r\n    address public owner;\r\n\r\n    error NotOwner();\r\n    error ZeroAddress();\r\n    error AlreadyRegistered();\r\n    error NotRegistered();\r\n    error NotVerified();\r\n    error Unauthorized();\r\n\r\n    /*//////////////////////////////////////////////////////////////\r\n                                  ENUMS\r\n    //////////////////////////////////////////////////////////////*/\r\n\r\n    /// @dev Keep OrganType consistent with Donor/Recipient contracts\r\n    enum OrganType { Heart, Liver, Kidneys }\r\n\r\n    /// @dev Roles available for hospital staff\r\n    enum Role { Admin, Surgeon, Coordinator, None }\r\n\r\n    /*//////////////////////////////////////////////////////////////\r\n                                 STRUCTS\r\n    //////////////////////////////////////////////////////////////*/\r\n\r\n    /// @notice Lightweight info struct (returnable) for a hospital\r\n    /// @dev Avoid mappings in the returned struct for ABI-compatibility\r\n    struct HospitalData {\r\n        string name;\r\n        string location; // free-form: city/country or geo-hash\r\n        string licenseId; // registration/license identifier issued by an authority\r\n        bool isVerified;  // flipped true after credentials verification\r\n    }\r\n\r\n    /// @notice Optional location struct for future extensibility\r\n    /// @dev Included to mirror patterns used in Recipient.sol (if any)\r\n    struct Location {\r\n        string country;\r\n        string region;\r\n        string city;\r\n        string coordinates; // e.g., \"lat,long\" or a what3words tag\r\n    }\r\n\r\n    /*//////////////////////////////////////////////////////////////\r\n                                STORAGE\r\n    //////////////////////////////////////////////////////////////*/\r\n\r\n    // Primary registry\r\n    mapping(address => HospitalData) private hospitals;               // hospital => data\r\n    mapping(address => bool) private isHospitalRegistered;             // quick existence check\r\n\r\n    // Capacity per organ (kept separate so HospitalData remains returnable)\r\n    mapping(address => mapping(uint8 => uint256)) private capacities;  // hospital => organType => capacity\r\n\r\n    // Staff authorization\r\n    mapping(address => mapping(address => Role)) private staffRoles;   // hospital => staff => role\r\n\r\n    // Verification artifact (hash of credentials)\r\n    mapping(address => bytes32) private credentialHash;                // hospital => keccak256(credentials)\r\n\r\n    /*//////////////////////////////////////////////////////////////\r\n                                  EVENTS\r\n    //////////////////////////////////////////////////////////////*/\r\n\r\n    event HospitalRegistered(address indexed hospital);\r\n    event HospitalVerified(address indexed hospital);\r\n    event HospitalInfoUpdated(address indexed hospital);\r\n    event HospitalCapacityUpdated(address indexed hospital, OrganType organ, uint256 capacity);\r\n    event StaffAuthorized(address indexed hospital, address indexed staff, Role role);\r\n\r\n    /*//////////////////////////////////////////////////////////////\r\n                                MODIFIERS\r\n    //////////////////////////////////////////////////////////////*/\r\n\r\n    modifier onlyOwner() {\r\n        if (msg.sender != owner) revert NotOwner();\r\n        _;\r\n    }\r\n\r\n    modifier onlyRegisteredHospital(address hospitalAddress) {\r\n        if (!isHospitalRegistered[hospitalAddress]) revert NotRegistered();\r\n        _;\r\n    }\r\n\r\n    /// @notice Restrict to staff with any role except None for a given hospital\r\n    modifier onlyAuthorizedHospitalStaff(address hospitalAddress) {\r\n        if (staffRoles[hospitalAddress][msg.sender] == Role.None && msg.sender != owner) {\r\n            revert Unauthorized();\r\n        }\r\n        _;\r\n    }\r\n\r\n    /// @notice Restrict to Admin for a given hospital (or contract owner)\r\n    modifier onlyHospitalAdmin(address hospitalAddress) {\r\n        Role r = staffRoles[hospitalAddress][msg.sender];\r\n        if (msg.sender != owner && r != Role.Admin) revert Unauthorized();\r\n        _;\r\n    }\r\n\r\n    /*//////////////////////////////////////////////////////////////\r\n                                CONSTRUCTOR\r\n    //////////////////////////////////////////////////////////////*/\r\n\r\n    constructor() {\r\n        owner = msg.sender;\r\n    }\r\n\r\n    /*//////////////////////////////////////////////////////////////\r\n                       3. HOSPITAL / INSTITUTION MANAGEMENT\r\n    //////////////////////////////////////////////////////////////*/\r\n\r\n    /// @notice Register a hospital/institution into the registry.\r\n    /// @dev Only owner can register to keep the registry curated & sybil-resistant.\r\n    /// @param hospitalAddress EOA or contract representing the institution.\r\n    /// @param hospitalInfo Basic info (name/location/licenseId). isVerified is forced false at registration.\r\n    function registerHospital(address hospitalAddress, HospitalData memory hospitalInfo) external onlyOwner {\r\n        if (hospitalAddress == address(0)) revert ZeroAddress();\r\n        if (isHospitalRegistered[hospitalAddress]) revert AlreadyRegistered();\r\n\r\n        hospitals[hospitalAddress] = HospitalData({\r\n            name: hospitalInfo.name,\r\n            location: hospitalInfo.location,\r\n            licenseId: hospitalInfo.licenseId,\r\n            isVerified: false\r\n        });\r\n\r\n        isHospitalRegistered[hospitalAddress] = true;\r\n\r\n        // Bootstrap: owner is implicitly Admin for all hospitals; additionally, allow hospitalAddress to assign admins\r\n        // The hospitalAddress itself is given Admin to manage its own staff.\r\n        staffRoles[hospitalAddress][hospitalAddress] = Role.Admin;\r\n\r\n        emit HospitalRegistered(hospitalAddress);\r\n    }\r\n\r\n    /// @notice Verify hospital credentials; stores a hash and flips isVerified.\r\n    /// @dev Only owner can verify. Credentials can be any byte payload; we store keccak256.\r\n    function verifyHospitalCredentials(address hospitalAddress, bytes memory credentials)\r\n        external\r\n        onlyOwner\r\n        onlyRegisteredHospital(hospitalAddress)\r\n    {\r\n        credentialHash[hospitalAddress] = keccak256(credentials);\r\n        hospitals[hospitalAddress].isVerified = true;\r\n        emit HospitalVerified(hospitalAddress);\r\n    }\r\n\r\n    /// @notice Get hospital info (name, location, licenseId, isVerified)\r\n    function getHospitalInfo(address hospitalAddress)\r\n        external\r\n        view\r\n        onlyRegisteredHospital(hospitalAddress)\r\n        returns (HospitalData memory)\r\n    {\r\n        return hospitals[hospitalAddress];\r\n    }\r\n\r\n    /// @notice Update organ capacity for a hospital\r\n    /// @dev Allowed for Admin or Coordinator of that hospital, or the contract owner.\r\n    function updateHospitalCapacity(address hospitalAddress, OrganType organType, uint256 capacity)\r\n        external\r\n        onlyRegisteredHospital(hospitalAddress)\r\n        onlyAuthorizedHospitalStaff(hospitalAddress)\r\n    {\r\n        capacities[hospitalAddress][uint8(organType)] = capacity;\r\n        emit HospitalCapacityUpdated(hospitalAddress, organType, capacity);\r\n    }\r\n\r\n    /// @notice Authorize a new staff member or change role for existing staff.\r\n    /// @dev Only a Hospital Admin (or contract owner) can call. Setting Role.None removes permissions.\r\n    function authorizeHospitalStaff(address hospitalAddress, address staffAddress, Role role)\r\n        external\r\n        onlyRegisteredHospital(hospitalAddress)\r\n        onlyHospitalAdmin(hospitalAddress)\r\n    {\r\n        if (staffAddress == address(0)) revert ZeroAddress();\r\n        staffRoles[hospitalAddress][staffAddress] = role;\r\n        emit StaffAuthorized(hospitalAddress, staffAddress, role);\r\n    }\r\n\r\n    /*//////////////////////////////////////////////////////////////\r\n                              ADDITIONAL HELPERS\r\n    //////////////////////////////////////////////////////////////*/\r\n\r\n    /// @notice Convenience getter for a staff member's role at a hospital\r\n    function getStaffRole(address hospitalAddress, address staffAddress)\r\n        external\r\n        view\r\n        onlyRegisteredHospital(hospitalAddress)\r\n        returns (Role)\r\n    {\r\n        return staffRoles[hospitalAddress][staffAddress];\r\n    }\r\n\r\n    /// @notice Read capacity for a given organ at a hospital\r\n    function getHospitalCapacity(address hospitalAddress, OrganType organType)\r\n        external\r\n        view\r\n        onlyRegisteredHospital(hospitalAddress)\r\n        returns (uint256)\r\n    {\r\n        return capacities[hospitalAddress][uint8(organType)];\r\n    }\r\n\r\n    /// @notice Optional: owner can update core info fields (e.g., name/location/license changes)\r\n    function updateHospitalCoreInfo(\r\n        address hospitalAddress,\r\n        string calldata name,\r\n        string calldata location_,\r\n        string calldata licenseId\r\n    ) external onlyOwner onlyRegisteredHospital(hospitalAddress) {\r\n        HospitalData storage d = hospitals[hospitalAddress];\r\n        d.name = name;\r\n        d.location = location_;\r\n        d.licenseId = licenseId;\r\n        emit HospitalInfoUpdated(hospitalAddress);\r\n    }\r\n\r\n    /*//////////////////////////////////////////////////////////////\r\n                          OWNER MAINTENANCE / ESCAPE HATCHES\r\n    //////////////////////////////////////////////////////////////*/\r\n\r\n    /// @notice Transfer contract ownership\r\n    function transferOwnership(address newOwner) external onlyOwner {\r\n        if (newOwner == address(0)) revert ZeroAddress();\r\n        owner = newOwner;\r\n    }\r\n}",
  "sourcePath": "D:\\Coursera\\OrganDonationSystem31st August\\OrganDonationSystem\\contracts\\Hospital.sol",
  "compiler": {
    "name": "solc",
    "version": "0.8.20+commit.a1b79de6.Linux.g++"
  },
  "schemaVersion": "3.4.16",
  "updatedAt": "2025-09-15T09:24:23.567Z",
  "networkType": "ethereum",
  "devdoc": {
    "details": "Designed for Truffle + MetaMask deployments; no external dependencies.",
    "kind": "dev",
    "methods": {
      "authorizeHospitalStaff(address,address,uint8)": {
        "details": "Only a Hospital Admin (or contract owner) can call. Setting Role.None removes permissions."
      },
      "registerHospital(address,(string,string,string,bool))": {
        "details": "Only owner can register to keep the registry curated & sybil-resistant.",
        "params": {
          "hospitalAddress": "EOA or contract representing the institution.",
          "hospitalInfo": "Basic info (name/location/licenseId). isVerified is forced false at registration."
        }
      },
      "updateHospitalCapacity(address,uint8,uint256)": {
        "details": "Allowed for Admin or Coordinator of that hospital, or the contract owner."
      },
      "verifyHospitalCredentials(address,bytes)": {
        "details": "Only owner can verify. Credentials can be any byte payload; we store keccak256."
      }
    },
    "title": "Hospital / Institution Management for Global NFT-Based Organ Donation System",
    "version": 1
  },
  "userdoc": {
    "kind": "user",
    "methods": {
      "authorizeHospitalStaff(address,address,uint8)": {
        "notice": "Authorize a new staff member or change role for existing staff."
      },
      "getHospitalCapacity(address,uint8)": {
        "notice": "Read capacity for a given organ at a hospital"
      },
      "getHospitalInfo(address)": {
        "notice": "Get hospital info (name, location, licenseId, isVerified)"
      },
      "getStaffRole(address,address)": {
        "notice": "Convenience getter for a staff member's role at a hospital"
      },
      "registerHospital(address,(string,string,string,bool))": {
        "notice": "Register a hospital/institution into the registry."
      },
      "transferOwnership(address)": {
        "notice": "Transfer contract ownership"
      },
      "updateHospitalCapacity(address,uint8,uint256)": {
        "notice": "Update organ capacity for a hospital"
      },
      "updateHospitalCoreInfo(address,string,string,string)": {
        "notice": "Optional: owner can update core info fields (e.g., name/location/license changes)"
      },
      "verifyHospitalCredentials(address,bytes)": {
        "notice": "Verify hospital credentials; stores a hash and flips isVerified."
      }
    },
    "notice": "Follows the same owner/modifier/event-driven pattern as Donor.sol and Recipient.sol",
    "version": 1
  }
}