{
  "contractName": "OrganNFT",
  "abi": [
    {
      "inputs": [],
      "stateMutability": "nonpayable",
      "type": "constructor"
    },
    {
      "anonymous": false,
      "inputs": [
        {
          "indexed": true,
          "internalType": "address",
          "name": "owner",
          "type": "address"
        },
        {
          "indexed": true,
          "internalType": "address",
          "name": "approved",
          "type": "address"
        },
        {
          "indexed": true,
          "internalType": "uint256",
          "name": "tokenId",
          "type": "uint256"
        }
      ],
      "name": "Approval",
      "type": "event"
    },
    {
      "anonymous": false,
      "inputs": [
        {
          "indexed": true,
          "internalType": "address",
          "name": "owner",
          "type": "address"
        },
        {
          "indexed": true,
          "internalType": "address",
          "name": "operator",
          "type": "address"
        },
        {
          "indexed": false,
          "internalType": "bool",
          "name": "approved",
          "type": "bool"
        }
      ],
      "name": "ApprovalForAll",
      "type": "event"
    },
    {
      "anonymous": false,
      "inputs": [
        {
          "indexed": false,
          "internalType": "uint256",
          "name": "_fromTokenId",
          "type": "uint256"
        },
        {
          "indexed": false,
          "internalType": "uint256",
          "name": "_toTokenId",
          "type": "uint256"
        }
      ],
      "name": "BatchMetadataUpdate",
      "type": "event"
    },
    {
      "anonymous": false,
      "inputs": [
        {
          "indexed": true,
          "internalType": "uint256",
          "name": "tokenId",
          "type": "uint256"
        },
        {
          "indexed": false,
          "internalType": "bool",
          "name": "isEmergency",
          "type": "bool"
        }
      ],
      "name": "EmergencyStatusUpdated",
      "type": "event"
    },
    {
      "anonymous": false,
      "inputs": [
        {
          "indexed": false,
          "internalType": "uint256",
          "name": "_tokenId",
          "type": "uint256"
        }
      ],
      "name": "MetadataUpdate",
      "type": "event"
    },
    {
      "anonymous": false,
      "inputs": [
        {
          "indexed": true,
          "internalType": "uint256",
          "name": "tokenId",
          "type": "uint256"
        }
      ],
      "name": "OrganExpired",
      "type": "event"
    },
    {
      "anonymous": false,
      "inputs": [
        {
          "indexed": true,
          "internalType": "uint256",
          "name": "tokenId",
          "type": "uint256"
        },
        {
          "indexed": true,
          "internalType": "address",
          "name": "recipient",
          "type": "address"
        },
        {
          "indexed": true,
          "internalType": "address",
          "name": "hospital",
          "type": "address"
        }
      ],
      "name": "OrganMatched",
      "type": "event"
    },
    {
      "anonymous": false,
      "inputs": [
        {
          "indexed": true,
          "internalType": "uint256",
          "name": "tokenId",
          "type": "uint256"
        },
        {
          "indexed": true,
          "internalType": "address",
          "name": "donor",
          "type": "address"
        },
        {
          "indexed": false,
          "internalType": "enum OrganNFT.OrganType",
          "name": "organType",
          "type": "uint8"
        }
      ],
      "name": "OrganMinted",
      "type": "event"
    },
    {
      "anonymous": false,
      "inputs": [
        {
          "indexed": true,
          "internalType": "uint256",
          "name": "tokenId",
          "type": "uint256"
        },
        {
          "indexed": false,
          "internalType": "enum OrganNFT.OrganStatus",
          "name": "status",
          "type": "uint8"
        }
      ],
      "name": "OrganStatusUpdated",
      "type": "event"
    },
    {
      "anonymous": false,
      "inputs": [
        {
          "indexed": true,
          "internalType": "uint256",
          "name": "tokenId",
          "type": "uint256"
        },
        {
          "indexed": true,
          "internalType": "address",
          "name": "recipient",
          "type": "address"
        }
      ],
      "name": "OrganTransplanted",
      "type": "event"
    },
    {
      "anonymous": false,
      "inputs": [
        {
          "indexed": true,
          "internalType": "address",
          "name": "previousOwner",
          "type": "address"
        },
        {
          "indexed": true,
          "internalType": "address",
          "name": "newOwner",
          "type": "address"
        }
      ],
      "name": "OwnershipTransferred",
      "type": "event"
    },
    {
      "anonymous": false,
      "inputs": [
        {
          "indexed": true,
          "internalType": "address",
          "name": "from",
          "type": "address"
        },
        {
          "indexed": true,
          "internalType": "address",
          "name": "to",
          "type": "address"
        },
        {
          "indexed": true,
          "internalType": "uint256",
          "name": "tokenId",
          "type": "uint256"
        }
      ],
      "name": "Transfer",
      "type": "event"
    },
    {
      "inputs": [
        {
          "internalType": "address",
          "name": "to",
          "type": "address"
        },
        {
          "internalType": "uint256",
          "name": "tokenId",
          "type": "uint256"
        }
      ],
      "name": "approve",
      "outputs": [],
      "stateMutability": "nonpayable",
      "type": "function"
    },
    {
      "inputs": [
        {
          "internalType": "address",
          "name": "owner",
          "type": "address"
        }
      ],
      "name": "balanceOf",
      "outputs": [
        {
          "internalType": "uint256",
          "name": "",
          "type": "uint256"
        }
      ],
      "stateMutability": "view",
      "type": "function",
      "constant": true
    },
    {
      "inputs": [],
      "name": "donorContract",
      "outputs": [
        {
          "internalType": "address",
          "name": "",
          "type": "address"
        }
      ],
      "stateMutability": "view",
      "type": "function",
      "constant": true
    },
    {
      "inputs": [
        {
          "internalType": "address",
          "name": "",
          "type": "address"
        },
        {
          "internalType": "uint256",
          "name": "",
          "type": "uint256"
        }
      ],
      "name": "donorOrgans",
      "outputs": [
        {
          "internalType": "uint256",
          "name": "",
          "type": "uint256"
        }
      ],
      "stateMutability": "view",
      "type": "function",
      "constant": true
    },
    {
      "inputs": [
        {
          "internalType": "uint256",
          "name": "tokenId",
          "type": "uint256"
        }
      ],
      "name": "getApproved",
      "outputs": [
        {
          "internalType": "address",
          "name": "",
          "type": "address"
        }
      ],
      "stateMutability": "view",
      "type": "function",
      "constant": true
    },
    {
      "inputs": [],
      "name": "hospitalContract",
      "outputs": [
        {
          "internalType": "address",
          "name": "",
          "type": "address"
        }
      ],
      "stateMutability": "view",
      "type": "function",
      "constant": true
    },
    {
      "inputs": [
        {
          "internalType": "address",
          "name": "owner",
          "type": "address"
        },
        {
          "internalType": "address",
          "name": "operator",
          "type": "address"
        }
      ],
      "name": "isApprovedForAll",
      "outputs": [
        {
          "internalType": "bool",
          "name": "",
          "type": "bool"
        }
      ],
      "stateMutability": "view",
      "type": "function",
      "constant": true
    },
    {
      "inputs": [],
      "name": "name",
      "outputs": [
        {
          "internalType": "string",
          "name": "",
          "type": "string"
        }
      ],
      "stateMutability": "view",
      "type": "function",
      "constant": true
    },
    {
      "inputs": [
        {
          "internalType": "bytes32",
          "name": "",
          "type": "bytes32"
        }
      ],
      "name": "organHash",
      "outputs": [
        {
          "internalType": "uint256",
          "name": "",
          "type": "uint256"
        }
      ],
      "stateMutability": "view",
      "type": "function",
      "constant": true
    },
    {
      "inputs": [
        {
          "internalType": "uint256",
          "name": "",
          "type": "uint256"
        }
      ],
      "name": "organMetadata",
      "outputs": [
        {
          "internalType": "address",
          "name": "donorAddress",
          "type": "address"
        },
        {
          "internalType": "enum OrganNFT.OrganType",
          "name": "organType",
          "type": "uint8"
        },
        {
          "internalType": "string",
          "name": "bloodType",
          "type": "string"
        },
        {
          "internalType": "enum OrganNFT.OrganStatus",
          "name": "status",
          "type": "uint8"
        },
        {
          "internalType": "uint256",
          "name": "donationTimestamp",
          "type": "uint256"
        },
        {
          "internalType": "uint256",
          "name": "expiryTimestamp",
          "type": "uint256"
        },
        {
          "internalType": "address",
          "name": "assignedRecipient",
          "type": "address"
        },
        {
          "internalType": "address",
          "name": "assignedHospital",
          "type": "address"
        },
        {
          "internalType": "string",
          "name": "medicalDataHash",
          "type": "string"
        },
        {
          "internalType": "bool",
          "name": "isEmergency",
          "type": "bool"
        },
        {
          "internalType": "uint256",
          "name": "urgencyLevel",
          "type": "uint256"
        }
      ],
      "stateMutability": "view",
      "type": "function",
      "constant": true
    },
    {
      "inputs": [],
      "name": "owner",
      "outputs": [
        {
          "internalType": "address",
          "name": "",
          "type": "address"
        }
      ],
      "stateMutability": "view",
      "type": "function",
      "constant": true
    },
    {
      "inputs": [
        {
          "internalType": "uint256",
          "name": "tokenId",
          "type": "uint256"
        }
      ],
      "name": "ownerOf",
      "outputs": [
        {
          "internalType": "address",
          "name": "",
          "type": "address"
        }
      ],
      "stateMutability": "view",
      "type": "function",
      "constant": true
    },
    {
      "inputs": [
        {
          "internalType": "address",
          "name": "",
          "type": "address"
        },
        {
          "internalType": "uint256",
          "name": "",
          "type": "uint256"
        }
      ],
      "name": "recipientAssignedOrgans",
      "outputs": [
        {
          "internalType": "uint256",
          "name": "",
          "type": "uint256"
        }
      ],
      "stateMutability": "view",
      "type": "function",
      "constant": true
    },
    {
      "inputs": [],
      "name": "recipientContract",
      "outputs": [
        {
          "internalType": "address",
          "name": "",
          "type": "address"
        }
      ],
      "stateMutability": "view",
      "type": "function",
      "constant": true
    },
    {
      "inputs": [],
      "name": "renounceOwnership",
      "outputs": [],
      "stateMutability": "nonpayable",
      "type": "function"
    },
    {
      "inputs": [
        {
          "internalType": "address",
          "name": "from",
          "type": "address"
        },
        {
          "internalType": "address",
          "name": "to",
          "type": "address"
        },
        {
          "internalType": "uint256",
          "name": "tokenId",
          "type": "uint256"
        }
      ],
      "name": "safeTransferFrom",
      "outputs": [],
      "stateMutability": "nonpayable",
      "type": "function"
    },
    {
      "inputs": [
        {
          "internalType": "address",
          "name": "from",
          "type": "address"
        },
        {
          "internalType": "address",
          "name": "to",
          "type": "address"
        },
        {
          "internalType": "uint256",
          "name": "tokenId",
          "type": "uint256"
        },
        {
          "internalType": "bytes",
          "name": "data",
          "type": "bytes"
        }
      ],
      "name": "safeTransferFrom",
      "outputs": [],
      "stateMutability": "nonpayable",
      "type": "function"
    },
    {
      "inputs": [
        {
          "internalType": "address",
          "name": "operator",
          "type": "address"
        },
        {
          "internalType": "bool",
          "name": "approved",
          "type": "bool"
        }
      ],
      "name": "setApprovalForAll",
      "outputs": [],
      "stateMutability": "nonpayable",
      "type": "function"
    },
    {
      "inputs": [],
      "name": "symbol",
      "outputs": [
        {
          "internalType": "string",
          "name": "",
          "type": "string"
        }
      ],
      "stateMutability": "view",
      "type": "function",
      "constant": true
    },
    {
      "inputs": [
        {
          "internalType": "address",
          "name": "from",
          "type": "address"
        },
        {
          "internalType": "address",
          "name": "to",
          "type": "address"
        },
        {
          "internalType": "uint256",
          "name": "tokenId",
          "type": "uint256"
        }
      ],
      "name": "transferFrom",
      "outputs": [],
      "stateMutability": "nonpayable",
      "type": "function"
    },
    {
      "inputs": [
        {
          "internalType": "address",
          "name": "newOwner",
          "type": "address"
        }
      ],
      "name": "transferOwnership",
      "outputs": [],
      "stateMutability": "nonpayable",
      "type": "function"
    },
    {
      "inputs": [
        {
          "internalType": "address",
          "name": "_donorContract",
          "type": "address"
        },
        {
          "internalType": "address",
          "name": "_recipientContract",
          "type": "address"
        },
        {
          "internalType": "address",
          "name": "_hospitalContract",
          "type": "address"
        }
      ],
      "name": "setContractAddresses",
      "outputs": [],
      "stateMutability": "nonpayable",
      "type": "function"
    },
    {
      "inputs": [
        {
          "internalType": "address",
          "name": "donorAddress",
          "type": "address"
        },
        {
          "internalType": "enum OrganNFT.OrganType",
          "name": "organType",
          "type": "uint8"
        },
        {
          "internalType": "string",
          "name": "bloodType",
          "type": "string"
        },
        {
          "internalType": "string",
          "name": "medicalDataHash",
          "type": "string"
        },
        {
          "internalType": "string",
          "name": "uri",
          "type": "string"
        }
      ],
      "name": "mintOrganNFT",
      "outputs": [
        {
          "internalType": "uint256",
          "name": "",
          "type": "uint256"
        }
      ],
      "stateMutability": "nonpayable",
      "type": "function"
    },
    {
      "inputs": [
        {
          "internalType": "uint256",
          "name": "tokenId",
          "type": "uint256"
        },
        {
          "internalType": "address",
          "name": "recipient",
          "type": "address"
        },
        {
          "internalType": "address",
          "name": "hospital",
          "type": "address"
        }
      ],
      "name": "matchOrgan",
      "outputs": [],
      "stateMutability": "nonpayable",
      "type": "function"
    },
    {
      "inputs": [
        {
          "internalType": "uint256",
          "name": "tokenId",
          "type": "uint256"
        }
      ],
      "name": "markTransplanted",
      "outputs": [],
      "stateMutability": "nonpayable",
      "type": "function"
    },
    {
      "inputs": [
        {
          "internalType": "uint256",
          "name": "tokenId",
          "type": "uint256"
        }
      ],
      "name": "markExpired",
      "outputs": [],
      "stateMutability": "nonpayable",
      "type": "function"
    },
    {
      "inputs": [
        {
          "internalType": "uint256",
          "name": "tokenId",
          "type": "uint256"
        },
        {
          "internalType": "uint256",
          "name": "expiryTime",
          "type": "uint256"
        }
      ],
      "name": "setExpiryTimestamp",
      "outputs": [],
      "stateMutability": "nonpayable",
      "type": "function"
    },
    {
      "inputs": [
        {
          "internalType": "uint256",
          "name": "tokenId",
          "type": "uint256"
        },
        {
          "internalType": "bool",
          "name": "isEmergency",
          "type": "bool"
        },
        {
          "internalType": "uint256",
          "name": "urgencyLevel",
          "type": "uint256"
        }
      ],
      "name": "setEmergencyStatus",
      "outputs": [],
      "stateMutability": "nonpayable",
      "type": "function"
    },
    {
      "inputs": [
        {
          "internalType": "uint256",
          "name": "tokenId",
          "type": "uint256"
        },
        {
          "internalType": "enum OrganNFT.OrganStatus",
          "name": "newStatus",
          "type": "uint8"
        }
      ],
      "name": "updateOrganStatus",
      "outputs": [],
      "stateMutability": "nonpayable",
      "type": "function"
    },
    {
      "inputs": [
        {
          "internalType": "uint256",
          "name": "tokenId",
          "type": "uint256"
        }
      ],
      "name": "getOrganMetadata",
      "outputs": [
        {
          "components": [
            {
              "internalType": "address",
              "name": "donorAddress",
              "type": "address"
            },
            {
              "internalType": "enum OrganNFT.OrganType",
              "name": "organType",
              "type": "uint8"
            },
            {
              "internalType": "string",
              "name": "bloodType",
              "type": "string"
            },
            {
              "internalType": "enum OrganNFT.OrganStatus",
              "name": "status",
              "type": "uint8"
            },
            {
              "internalType": "uint256",
              "name": "donationTimestamp",
              "type": "uint256"
            },
            {
              "internalType": "uint256",
              "name": "expiryTimestamp",
              "type": "uint256"
            },
            {
              "internalType": "address",
              "name": "assignedRecipient",
              "type": "address"
            },
            {
              "internalType": "address",
              "name": "assignedHospital",
              "type": "address"
            },
            {
              "internalType": "string",
              "name": "medicalDataHash",
              "type": "string"
            },
            {
              "internalType": "bool",
              "name": "isEmergency",
              "type": "bool"
            },
            {
              "internalType": "uint256",
              "name": "urgencyLevel",
              "type": "uint256"
            }
          ],
          "internalType": "struct OrganNFT.OrganMetadata",
          "name": "",
          "type": "tuple"
        }
      ],
      "stateMutability": "view",
      "type": "function",
      "constant": true
    },
    {
      "inputs": [
        {
          "internalType": "address",
          "name": "donor",
          "type": "address"
        }
      ],
      "name": "getDonorOrgans",
      "outputs": [
        {
          "internalType": "uint256[]",
          "name": "",
          "type": "uint256[]"
        }
      ],
      "stateMutability": "view",
      "type": "function",
      "constant": true
    },
    {
      "inputs": [
        {
          "internalType": "address",
          "name": "recipient",
          "type": "address"
        }
      ],
      "name": "getRecipientOrgans",
      "outputs": [
        {
          "internalType": "uint256[]",
          "name": "",
          "type": "uint256[]"
        }
      ],
      "stateMutability": "view",
      "type": "function",
      "constant": true
    },
    {
      "inputs": [
        {
          "internalType": "address",
          "name": "donor",
          "type": "address"
        },
        {
          "internalType": "enum OrganNFT.OrganType",
          "name": "organType",
          "type": "uint8"
        }
      ],
      "name": "getOrganByDonorAndType",
      "outputs": [
        {
          "internalType": "uint256",
          "name": "",
          "type": "uint256"
        }
      ],
      "stateMutability": "view",
      "type": "function",
      "constant": true
    },
    {
      "inputs": [
        {
          "internalType": "enum OrganNFT.OrganType",
          "name": "organType",
          "type": "uint8"
        },
        {
          "internalType": "string",
          "name": "bloodType",
          "type": "string"
        }
      ],
      "name": "getAvailableOrgans",
      "outputs": [
        {
          "internalType": "uint256[]",
          "name": "",
          "type": "uint256[]"
        }
      ],
      "stateMutability": "view",
      "type": "function",
      "constant": true
    },
    {
      "inputs": [],
      "name": "getTotalOrgans",
      "outputs": [
        {
          "internalType": "uint256",
          "name": "",
          "type": "uint256"
        }
      ],
      "stateMutability": "view",
      "type": "function",
      "constant": true
    },
    {
      "inputs": [
        {
          "internalType": "uint256",
          "name": "tokenId",
          "type": "uint256"
        }
      ],
      "name": "tokenURI",
      "outputs": [
        {
          "internalType": "string",
          "name": "",
          "type": "string"
        }
      ],
      "stateMutability": "view",
      "type": "function",
      "constant": true
    },
    {
      "inputs": [
        {
          "internalType": "bytes4",
          "name": "interfaceId",
          "type": "bytes4"
        }
      ],
      "name": "supportsInterface",
      "outputs": [
        {
          "internalType": "bool",
          "name": "",
          "type": "bool"
        }
      ],
      "stateMutability": "view",
      "type": "function",
      "constant": true
    },
    {
      "inputs": [
        {
          "internalType": "uint256",
          "name": "tokenId",
          "type": "uint256"
        },
        {
          "internalType": "address",
          "name": "to",
          "type": "address"
        }
      ],
      "name": "emergencyTransfer",
      "outputs": [],
      "stateMutability": "nonpayable",
      "type": "function"
    },
    {
      "inputs": [
        {
          "internalType": "uint256[]",
          "name": "tokenIds",
          "type": "uint256[]"
        },
        {
          "internalType": "enum OrganNFT.OrganStatus",
          "name": "newStatus",
          "type": "uint8"
        }
      ],
      "name": "batchUpdateStatus",
      "outputs": [],
      "stateMutability": "nonpayable",
      "type": "function"
    },
    {
      "inputs": [
        {
          "internalType": "uint256",
          "name": "tokenId",
          "type": "uint256"
        }
      ],
      "name": "exists",
      "outputs": [
        {
          "internalType": "bool",
          "name": "",
          "type": "bool"
        }
      ],
      "stateMutability": "view",
      "type": "function",
      "constant": true
    }
  ],
  "bytecode": "0x60806040523480156200001157600080fd5b506040518060400160405280601081526020016f13dc99d85b911bdb985d1a5bdb93919560821b8152506040518060400160405280600581526020016427a923a0a760d91b81525081600090816200006a919062000197565b50600162000079828262000197565b50505062000096620000906200009c60201b60201c565b620000a0565b62000263565b3390565b600780546001600160a01b038381166001600160a01b0319831681179093556040519116919082907f8be0079c531659141344cd1fd0a4f28419497f9722a3daafe3b4186f6b6457e090600090a35050565b634e487b7160e01b600052604160045260246000fd5b600181811c908216806200011d57607f821691505b6020821081036200013e57634e487b7160e01b600052602260045260246000fd5b50919050565b601f8211156200019257600081815260208120601f850160051c810160208610156200016d5750805b601f850160051c820191505b818110156200018e5782815560010162000179565b5050505b505050565b81516001600160401b03811115620001b357620001b3620000f2565b620001cb81620001c4845462000108565b8462000144565b602080601f831160018114620002035760008415620001ea5750858301515b600019600386901b1c1916600185901b1785556200018e565b600085815260208120601f198616915b82811015620002345788860151825594840194600190910190840162000213565b5085821015620002535787850151600019600388901b60f8161c191681555b5050505050600190811b01905550565b6138ae80620002736000396000f3fe608060405234801561001057600080fd5b50600436106102485760003560e01c8063715018a61161013b578063a22cb465116100b8578063e26430aa1161007c578063e26430aa14610529578063e985e9c51461053c578063eccc9a8b14610578578063f2fde38b146105a2578063fa89d5db146105b557600080fd5b8063a22cb465146104ca578063b88d4fde146104dd578063c87b56dd146104f0578063d29fd6b214610503578063e1336d971461051657600080fd5b80638ab63380116100ff5780638ab63380146104785780638da5cb5b1461048b578063901b93661461049c57806395d89b41146104af578063987e893e146104b757600080fd5b8063715018a61461040a57806377fd00c5146104125780637d4dcbe21461042557806384386de814610445578063870a8a661461046557600080fd5b806342842e0e116101c9578063556199111161018d578063556199111461039e57806361748be1146103b15780636269dbbf146103c45780636352211e146103e457806370a08231146103f757600080fd5b806342842e0e1461033f57806342b2f3ec1461035257806347dbb71a146103655780634ddfc0e3146103785780634f558e791461038b57600080fd5b80630dd34fc4116102105780630dd34fc4146102dd57806311e1c24a146102f3578063126d59fc1461030657806323b872dd146103195780632de8d6021461032c57600080fd5b806301ffc9a71461024d57806306fdde0314610275578063081812fc1461028a578063095ea7b3146102b55780630a666e5a146102ca575b600080fd5b61026061025b366004612d13565b6105c8565b60405190151581526020015b60405180910390f35b61027d6105d9565b60405161026c9190612d80565b61029d610298366004612d93565b61066b565b6040516001600160a01b03909116815260200161026c565b6102c86102c3366004612dc8565b610692565b005b600e5461029d906001600160a01b031681565b6102e56107ac565b60405190815260200161026c565b600d5461029d906001600160a01b031681565b6102e5610314366004612dc8565b6107bc565b6102c8610327366004612df2565b6107ed565b6102c861033a366004612e3d565b61081e565b6102c861034d366004612df2565b61095c565b6102e5610360366004612e78565b610977565b600f5461029d906001600160a01b031681565b6102c8610386366004612ee9565b6109ba565b610260610399366004612d93565b610aaf565b6102c86103ac366004612fa1565b610aba565b6102c86103bf366004612fd4565b610b06565b6103d76103d2366004612ff9565b610c8c565b60405161026c9190613014565b61029d6103f2366004612d93565b610cf8565b6102e5610405366004612ff9565b610d58565b6102c8610dde565b6102c8610420366004612d93565b610df2565b610438610433366004612d93565b610f97565b60405161026c9190613092565b6102e5610453366004612d93565b600c6020526000908152604090205481565b6102c8610473366004612d93565b61122a565b6102c8610486366004613186565b6113bf565b6007546001600160a01b031661029d565b6103d76104aa366004613241565b611406565b61027d6117cc565b6103d76104c5366004612ff9565b6117db565b6102c86104d836600461328f565b611845565b6102c86104eb3660046132b9565b611854565b61027d6104fe366004612d93565b611886565b6102c8610511366004613335565b611891565b6102c861052436600461335a565b611a64565b6102e5610537366004612dc8565b611b48565b61026061054a36600461337c565b6001600160a01b03918216600090815260056020908152604080832093909416825291909152205460ff1690565b61058b610586366004612d93565b611b64565b60405161026c9b9a999897969594939291906133a6565b6102c86105b0366004612ff9565b611cf3565b6102e56105c3366004613435565b611d6c565b60006105d3826120f5565b92915050565b6060600080546105e8906134df565b80601f0160208091040260200160405190810160405280929190818152602001828054610614906134df565b80156106615780601f1061063657610100808354040283529160200191610661565b820191906000526020600020905b81548152906001019060200180831161064457829003601f168201915b5050505050905090565b60006106768261211a565b506000908152600460205260409020546001600160a01b031690565b600061069d82610cf8565b9050806001600160a01b0316836001600160a01b03160361070f5760405162461bcd60e51b815260206004820152602160248201527f4552433732313a20617070726f76616c20746f2063757272656e74206f776e656044820152603960f91b60648201526084015b60405180910390fd5b336001600160a01b038216148061072b575061072b813361054a565b61079d5760405162461bcd60e51b815260206004820152603d60248201527f4552433732313a20617070726f76652063616c6c6572206973206e6f7420746f60448201527f6b656e206f776e6572206f7220617070726f76656420666f7220616c6c0000006064820152608401610706565b6107a7838361216a565b505050565b60006107b760085490565b905090565b600a60205281600052604060002081815481106107d857600080fd5b90600052602060002001600091509150505481565b6107f733826121d8565b6108135760405162461bcd60e51b815260040161070690613513565b6107a7838383612257565b6007546001600160a01b03163314806108565750600d546001600160a01b0316158015906108565750600d546001600160a01b031633145b806108805750600e546001600160a01b0316158015906108805750600e546001600160a01b031633145b806108aa5750600f546001600160a01b0316158015906108aa5750600f546001600160a01b031633145b6108c65760405162461bcd60e51b815260040161070690613560565b816108d0816123bb565b6108ec5760405162461bcd60e51b815260040161070690613588565b6000838152600960205260409020600201805483919060ff1916600183600481111561091a5761091a613058565b0217905550827f8a3aa03dbc8297bb0a8b32b2f66744380df39fc35ac344d6f72f6da7e727e60e8360405161094f91906135b6565b60405180910390a2505050565b6107a783838360405180602001604052806000815250611854565b600080838360405160200161098d9291906135c4565b60408051808303601f1901815291815281516020928301206000908152600c909252902054949350505050565b6109c26123d8565b60005b82518110156107a7576109f08382815181106109e3576109e36135ff565b60200260200101516123bb565b15610a9d578160096000858481518110610a0c57610a0c6135ff565b6020026020010151815260200190815260200160002060020160006101000a81548160ff02191690836004811115610a4657610a46613058565b0217905550828181518110610a5d57610a5d6135ff565b60200260200101517f8a3aa03dbc8297bb0a8b32b2f66744380df39fc35ac344d6f72f6da7e727e60e83604051610a9491906135b6565b60405180910390a25b80610aa781613615565b9150506109c5565b60006105d3826123bb565b610ac26123d8565b81610acc816123bb565b610ae85760405162461bcd60e51b815260040161070690613588565b6000610af384610cf8565b9050610b00818486612257565b50505050565b6007546001600160a01b0316331480610b3e5750600d546001600160a01b031615801590610b3e5750600d546001600160a01b031633145b80610b685750600e546001600160a01b031615801590610b685750600e546001600160a01b031633145b80610b925750600f546001600160a01b031615801590610b925750600f546001600160a01b031633145b610bae5760405162461bcd60e51b815260040161070690613560565b82610bb8816123bb565b610bd45760405162461bcd60e51b815260040161070690613588565b60018210158015610be65750600a8211155b610c2a5760405162461bcd60e51b8152602060048201526015602482015274125b9d985b1a59081d5c99d95b98de481b195d995b605a1b6044820152606401610706565b60008481526009602081815260409283902060088101805460ff19168815159081179091559201859055915190815285917f37b24990b353962b6ac4245bf9550f505a037fc0d88ae4e3f8cf55fa7d1eb66b910160405180910390a250505050565b6001600160a01b0381166000908152600a6020908152604091829020805483518184028101840190945280845260609392830182828015610cec57602002820191906000526020600020905b815481526020019060010190808311610cd8575b50505050509050919050565b6000818152600260205260408120546001600160a01b0316806105d35760405162461bcd60e51b8152602060048201526018602482015277115490cdcc8c4e881a5b9d985b1a59081d1bdad95b88125160421b6044820152606401610706565b60006001600160a01b038216610dc25760405162461bcd60e51b815260206004820152602960248201527f4552433732313a2061646472657373207a65726f206973206e6f7420612076616044820152683634b21037bbb732b960b91b6064820152608401610706565b506001600160a01b031660009081526003602052604090205490565b610de66123d8565b610df06000612432565b565b6007546001600160a01b0316331480610e2a5750600d546001600160a01b031615801590610e2a5750600d546001600160a01b031633145b80610e545750600e546001600160a01b031615801590610e545750600e546001600160a01b031633145b80610e7e5750600f546001600160a01b031615801590610e7e5750600f546001600160a01b031633145b610e9a5760405162461bcd60e51b815260040161070690613560565b80610ea4816123bb565b610ec05760405162461bcd60e51b815260040161070690613588565b600082815260096020526040812090600282015460ff166004811115610ee857610ee8613058565b1480610f0c57506001600282015460ff166004811115610f0a57610f0a613058565b145b610f585760405162461bcd60e51b815260206004820181905260248201527f43616e6e6f7420657870697265207472616e73706c616e746564206f7267616e6044820152606401610706565b60028101805460ff1916600317905560405183907f3331329f13cf6f1200abf448d33f3028caeeedac50d603119ecc9cda9a9889c190600090a2505050565b610ff460408051610160810190915260008082526020820190815260606020820152604001600081526000602082018190526040820181905260608083018290526080830182905260a083015260c0820181905260e09091015290565b81610ffe816123bb565b61101a5760405162461bcd60e51b815260040161070690613588565b6000838152600960209081526040918290208251610160810190935280546001600160a01b03811684529091830190600160a01b900460ff16600281111561106457611064613058565b600281111561107557611075613058565b8152602001600182018054611089906134df565b80601f01602080910402602001604051908101604052809291908181526020018280546110b5906134df565b80156111025780601f106110d757610100808354040283529160200191611102565b820191906000526020600020905b8154815290600101906020018083116110e557829003601f168201915b5050509183525050600282015460209091019060ff16600481111561112957611129613058565b600481111561113a5761113a613058565b8152600382015460208201526004820154604082015260058201546001600160a01b039081166060830152600683015416608082015260078201805460a090920191611185906134df565b80601f01602080910402602001604051908101604052809291908181526020018280546111b1906134df565b80156111fe5780601f106111d3576101008083540402835291602001916111fe565b820191906000526020600020905b8154815290600101906020018083116111e157829003601f168201915b5050509183525050600882015460ff161515602082015260099091015460409091015291505b50919050565b6007546001600160a01b03163314806112625750600d546001600160a01b0316158015906112625750600d546001600160a01b031633145b8061128c5750600e546001600160a01b03161580159061128c5750600e546001600160a01b031633145b806112b65750600f546001600160a01b0316158015906112b65750600f546001600160a01b031633145b6112d25760405162461bcd60e51b815260040161070690613560565b806112dc816123bb565b6112f85760405162461bcd60e51b815260040161070690613588565b60008281526009602052604090206001600282015460ff16600481111561132157611321613058565b1461136e5760405162461bcd60e51b815260206004820152601b60248201527f4f7267616e206d757374206265206d61746368656420666972737400000000006044820152606401610706565b6002818101805460ff1916909117905560058101546040516001600160a01b039091169084907ffd0ac0ae9d50f0f4c0d8c0d0aaa95064fac8b83336c32338be5ae0e0ae094bf090600090a3505050565b6113c76123d8565b600d80546001600160a01b039485166001600160a01b031991821617909155600e805493851693821693909317909255600f8054919093169116179055565b6060600061141360085490565b905060008167ffffffffffffffff81111561143057611430612ea2565b604051908082528060200260200182016040528015611459578160200160208202803683370190505b5090506000805b8381101561172557611471816123bb565b156117135760008181526009602090815260408083208151610160810190925280546001600160a01b03811683529192909190830190600160a01b900460ff1660028111156114c2576114c2613058565b60028111156114d3576114d3613058565b81526020016001820180546114e7906134df565b80601f0160208091040260200160405190810160405280929190818152602001828054611513906134df565b80156115605780601f1061153557610100808354040283529160200191611560565b820191906000526020600020905b81548152906001019060200180831161154357829003601f168201915b5050509183525050600282015460209091019060ff16600481111561158757611587613058565b600481111561159857611598613058565b8152600382015460208201526004820154604082015260058201546001600160a01b039081166060830152600683015416608082015260078201805460a0909201916115e3906134df565b80601f016020809104026020016040519081016040528092919081815260200182805461160f906134df565b801561165c5780601f106116315761010080835404028352916020019161165c565b820191906000526020600020905b81548152906001019060200180831161163f57829003601f168201915b5050509183525050600882015460ff1615156020820152600990910154604090910152905087600281111561169357611693613058565b816020015160028111156116a9576116a9613058565b1480156116cb57506000816060015160048111156116c9576116c9613058565b145b80156116e057506116e0816040015188612484565b1561171157818484815181106116f8576116f86135ff565b60209081029190910101528261170d81613615565b9350505b505b8061171d81613615565b915050611460565b5060008167ffffffffffffffff81111561174157611741612ea2565b60405190808252806020026020018201604052801561176a578160200160208202803683370190505b50905060005b828110156117c15783818151811061178a5761178a6135ff565b60200260200101518282815181106117a4576117a46135ff565b6020908102919091010152806117b981613615565b915050611770565b509695505050505050565b6060600180546105e8906134df565b6001600160a01b0381166000908152600b6020908152604091829020805483518184028101840190945280845260609392830182828015610cec5760200282019190600052602060002090815481526020019060010190808311610cd85750505050509050919050565b61185033838361254e565b5050565b61185e33836121d8565b61187a5760405162461bcd60e51b815260040161070690613513565b610b008484848461261c565b60606105d38261264f565b6007546001600160a01b03163314806118c95750600d546001600160a01b0316158015906118c95750600d546001600160a01b031633145b806118f35750600e546001600160a01b0316158015906118f35750600e546001600160a01b031633145b8061191d5750600f546001600160a01b03161580159061191d5750600f546001600160a01b031633145b6119395760405162461bcd60e51b815260040161070690613560565b82611943816123bb565b61195f5760405162461bcd60e51b815260040161070690613588565b600084815260096020526040812090600282015460ff16600481111561198757611987613058565b146119ca5760405162461bcd60e51b81526020600482015260136024820152724f7267616e206e6f7420617661696c61626c6560681b6044820152606401610706565b60028101805460ff191660019081179091556005820180546001600160a01b038781166001600160a01b031992831681179093556006850180549188169190921681179091556000828152600b602090815260408083208054968701815583529082209094018990559251909288917f18e23d642935e0c7ded77573d7b9b82932efc23be00dd79b472bf9b718fcfb7d9190a45050505050565b6007546001600160a01b0316331480611a9c5750600d546001600160a01b031615801590611a9c5750600d546001600160a01b031633145b80611ac65750600e546001600160a01b031615801590611ac65750600e546001600160a01b031633145b80611af05750600f546001600160a01b031615801590611af05750600f546001600160a01b031633145b611b0c5760405162461bcd60e51b815260040161070690613560565b81611b16816123bb565b611b325760405162461bcd60e51b815260040161070690613588565b5060009182526009602052604090912060040155565b600b60205281600052604060002081815481106107d857600080fd5b600960205260009081526040902080546001820180546001600160a01b03831693600160a01b90930460ff16929190611b9c906134df565b80601f0160208091040260200160405190810160405280929190818152602001828054611bc8906134df565b8015611c155780601f10611bea57610100808354040283529160200191611c15565b820191906000526020600020905b815481529060010190602001808311611bf857829003601f168201915b50505060028401546003850154600486015460058701546006880154600789018054989960ff909616989497509295506001600160a01b0391821694911692909190611c60906134df565b80601f0160208091040260200160405190810160405280929190818152602001828054611c8c906134df565b8015611cd95780601f10611cae57610100808354040283529160200191611cd9565b820191906000526020600020905b815481529060010190602001808311611cbc57829003601f168201915b505050506008830154600990930154919260ff169190508b565b611cfb6123d8565b6001600160a01b038116611d605760405162461bcd60e51b815260206004820152602660248201527f4f776e61626c653a206e6577206f776e657220697320746865207a65726f206160448201526564647265737360d01b6064820152608401610706565b611d6981612432565b50565b6000611d806007546001600160a01b031690565b6001600160a01b0316336001600160a01b03161480611dbe5750600d546001600160a01b031615801590611dbe5750600d546001600160a01b031633145b80611de85750600e546001600160a01b031615801590611de85750600e546001600160a01b031633145b80611e125750600f546001600160a01b031615801590611e125750600f546001600160a01b031633145b611e2e5760405162461bcd60e51b815260040161070690613560565b6000611e3960085490565b9050611e49600880546001019055565b60008787604051602001611e5e9291906135c4565b60408051601f1981840301815291815281516020928301206000818152600c90935291205490915015611eca5760405162461bcd60e51b81526020600482015260146024820152734f7267616e20616c72656164792065786973747360601b6044820152606401610706565b611ed48883612757565b611ede8285612771565b604051806101600160405280896001600160a01b03168152602001886002811115611f0b57611f0b613058565b815260208101889052604001600081524260208083019190915260006040808401829052606084018290526080840182905260a084018a905260c08401829052600160e0909401939093528581526009825291909120825181546001600160a01b03919091166001600160a01b031982168117835592840151919283916001600160a81b03191617600160a01b836002811115611faa57611faa613058565b021790555060408201516001820190611fc3908261368a565b50606082015160028201805460ff19166001836004811115611fe757611fe7613058565b02179055506080820151600382015560a0820151600482015560c08201516005820180546001600160a01b039283166001600160a01b03199182161790915560e0840151600684018054919093169116179055610100820151600782019061204f908261368a565b5061012082015160088201805460ff1916911515919091179055610140909101516009909101556001600160a01b0388166000818152600a60209081526040808320805460018101825590845282842001869055848352600c909152908190208490555183907f47b5e4dc424bff6bc9df3858d5aa4d2d3b5ef76a6dd4d4ea7ae116d2d0f65e99906120e2908b9061374a565b60405180910390a3509695505050505050565b60006001600160e01b03198216632483248360e11b14806105d357506105d38261282d565b612123816123bb565b611d695760405162461bcd60e51b8152602060048201526018602482015277115490cdcc8c4e881a5b9d985b1a59081d1bdad95b88125160421b6044820152606401610706565b600081815260046020526040902080546001600160a01b0319166001600160a01b038416908117909155819061219f82610cf8565b6001600160a01b03167f8c5be1e5ebec7d5bd14f71427d1e84f3dd0314c0f7b2291e5b200ac8c7c3b92560405160405180910390a45050565b6000806121e483610cf8565b9050806001600160a01b0316846001600160a01b0316148061222b57506001600160a01b0380821660009081526005602090815260408083209388168352929052205460ff165b8061224f5750836001600160a01b03166122448461066b565b6001600160a01b0316145b949350505050565b826001600160a01b031661226a82610cf8565b6001600160a01b0316146122905760405162461bcd60e51b815260040161070690613758565b6001600160a01b0382166122f25760405162461bcd60e51b8152602060048201526024808201527f4552433732313a207472616e7366657220746f20746865207a65726f206164646044820152637265737360e01b6064820152608401610706565b826001600160a01b031661230582610cf8565b6001600160a01b03161461232b5760405162461bcd60e51b815260040161070690613758565b600081815260046020908152604080832080546001600160a01b03199081169091556001600160a01b0387811680865260038552838620805460001901905590871680865283862080546001019055868652600290945282852080549092168417909155905184937fddf252ad1be2c89b69c2b068fc378daa952ba7f163c4a11628f55a4df523b3ef91a4505050565b6000908152600260205260409020546001600160a01b0316151590565b6007546001600160a01b03163314610df05760405162461bcd60e51b815260206004820181905260248201527f4f776e61626c653a2063616c6c6572206973206e6f7420746865206f776e65726044820152606401610706565b600780546001600160a01b038381166001600160a01b0319831681179093556040519116919082907f8be0079c531659141344cd1fd0a4f28419497f9722a3daafe3b4186f6b6457e090600090a35050565b81516020808401919091208251838301206040805180820190915260028152614f2d60f01b9301929092526000917f24ee4dfd51ea61da0c7e24c25c8c8d13195e7f61972e3f3ce41c702aef172bdd82016124e4576001925050506105d3565b60408051808201909152600381526241422b60e81b6020909101527fe069aaba111c183a1fde677842e779bedeab6cff9e204992bbb1c54a2a1da06f8101612531576001925050506105d3565b808203612543576001925050506105d3565b506000949350505050565b816001600160a01b0316836001600160a01b0316036125af5760405162461bcd60e51b815260206004820152601960248201527f4552433732313a20617070726f766520746f2063616c6c6572000000000000006044820152606401610706565b6001600160a01b03838116600081815260056020908152604080832094871680845294825291829020805460ff191686151590811790915591519182527f17307eab39ab6107e8899845ad3d59bd9653f200f220920489ca2b5937696c31910160405180910390a3505050565b612627848484612257565b6126338484848461287d565b610b005760405162461bcd60e51b81526004016107069061379d565b606061265a8261211a565b60008281526006602052604081208054612673906134df565b80601f016020809104026020016040519081016040528092919081815260200182805461269f906134df565b80156126ec5780601f106126c1576101008083540402835291602001916126ec565b820191906000526020600020905b8154815290600101906020018083116126cf57829003601f168201915b50505050509050600061270a60408051602081019091526000815290565b9050805160000361271c575092915050565b81511561274e5780826040516020016127369291906137ef565b60405160208183030381529060405292505050919050565b61224f8461297e565b6118508282604051806020016040528060008152506129f2565b61277a826123bb565b6127dd5760405162461bcd60e51b815260206004820152602e60248201527f45524337323155524953746f726167653a2055524920736574206f66206e6f6e60448201526d32bc34b9ba32b73a103a37b5b2b760911b6064820152608401610706565b60008281526006602052604090206127f5828261368a565b506040518281527ff8e1a15aba9398e019f0b49df1a4fde98ee17ae345cb5f6b5e2c27f5033e8ce79060200160405180910390a15050565b60006001600160e01b031982166380ac58cd60e01b148061285e57506001600160e01b03198216635b5e139f60e01b145b806105d357506301ffc9a760e01b6001600160e01b03198316146105d3565b60006001600160a01b0384163b1561297357604051630a85bd0160e11b81526001600160a01b0385169063150b7a02906128c190339089908890889060040161381e565b6020604051808303816000875af19250505080156128fc575060408051601f3d908101601f191682019092526128f99181019061385b565b60015b612959573d80801561292a576040519150601f19603f3d011682016040523d82523d6000602084013e61292f565b606091505b5080516000036129515760405162461bcd60e51b81526004016107069061379d565b805181602001fd5b6001600160e01b031916630a85bd0160e11b14905061224f565b506001949350505050565b60606129898261211a565b60006129a060408051602081019091526000815290565b905060008151116129c057604051806020016040528060008152506129eb565b806129ca84612a25565b6040516020016129db9291906137ef565b6040516020818303038152906040525b9392505050565b6129fc8383612ab8565b612a09600084848461287d565b6107a75760405162461bcd60e51b81526004016107069061379d565b60606000612a3283612c25565b600101905060008167ffffffffffffffff811115612a5257612a52612ea2565b6040519080825280601f01601f191660200182016040528015612a7c576020820181803683370190505b5090508181016020015b600019016f181899199a1a9b1b9c1cb0b131b232b360811b600a86061a8153600a8504945084612a8657509392505050565b6001600160a01b038216612b0e5760405162461bcd60e51b815260206004820181905260248201527f4552433732313a206d696e7420746f20746865207a65726f20616464726573736044820152606401610706565b612b17816123bb565b15612b645760405162461bcd60e51b815260206004820152601c60248201527f4552433732313a20746f6b656e20616c7265616479206d696e746564000000006044820152606401610706565b612b6d816123bb565b15612bba5760405162461bcd60e51b815260206004820152601c60248201527f4552433732313a20746f6b656e20616c7265616479206d696e746564000000006044820152606401610706565b6001600160a01b038216600081815260036020908152604080832080546001019055848352600290915280822080546001600160a01b0319168417905551839291907fddf252ad1be2c89b69c2b068fc378daa952ba7f163c4a11628f55a4df523b3ef908290a45050565b60008072184f03e93ff9f4daa797ed6e38ed64bf6a1f0160401b8310612c645772184f03e93ff9f4daa797ed6e38ed64bf6a1f0160401b830492506040015b6d04ee2d6d415b85acef81000000008310612c90576d04ee2d6d415b85acef8100000000830492506020015b662386f26fc100008310612cae57662386f26fc10000830492506010015b6305f5e1008310612cc6576305f5e100830492506008015b6127108310612cda57612710830492506004015b60648310612cec576064830492506002015b600a83106105d35760010192915050565b6001600160e01b031981168114611d6957600080fd5b600060208284031215612d2557600080fd5b81356129eb81612cfd565b60005b83811015612d4b578181015183820152602001612d33565b50506000910152565b60008151808452612d6c816020860160208601612d30565b601f01601f19169290920160200192915050565b6020815260006129eb6020830184612d54565b600060208284031215612da557600080fd5b5035919050565b80356001600160a01b0381168114612dc357600080fd5b919050565b60008060408385031215612ddb57600080fd5b612de483612dac565b946020939093013593505050565b600080600060608486031215612e0757600080fd5b612e1084612dac565b9250612e1e60208501612dac565b9150604084013590509250925092565b803560058110612dc357600080fd5b60008060408385031215612e5057600080fd5b82359150612e6060208401612e2e565b90509250929050565b803560038110612dc357600080fd5b60008060408385031215612e8b57600080fd5b612e9483612dac565b9150612e6060208401612e69565b634e487b7160e01b600052604160045260246000fd5b604051601f8201601f1916810167ffffffffffffffff81118282101715612ee157612ee1612ea2565b604052919050565b60008060408385031215612efc57600080fd5b823567ffffffffffffffff80821115612f1457600080fd5b818501915085601f830112612f2857600080fd5b8135602082821115612f3c57612f3c612ea2565b8160051b9250612f4d818401612eb8565b8281529284018101928181019089851115612f6757600080fd5b948201945b84861015612f8557853582529482019490820190612f6c565b9650612f949050878201612e2e565b9450505050509250929050565b60008060408385031215612fb457600080fd5b82359150612e6060208401612dac565b80358015158114612dc357600080fd5b600080600060608486031215612fe957600080fd5b83359250612e1e60208501612fc4565b60006020828403121561300b57600080fd5b6129eb82612dac565b6020808252825182820181905260009190848201906040850190845b8181101561304c57835183529284019291840191600101613030565b50909695505050505050565b634e487b7160e01b600052602160045260246000fd5b6003811061307e5761307e613058565b9052565b6005811061307e5761307e613058565b602081526130ac6020820183516001600160a01b03169052565b600060208301516130c0604084018261306e565b5060408301516101608060608501526130dd610180850183612d54565b915060608501516130f16080860182613082565b50608085015160a085015260a085015160c085015260c085015161312060e08601826001600160a01b03169052565b5060e085015161010061313d818701836001600160a01b03169052565b80870151915050610120601f19868503018187015261315c8483612d54565b9350808701519150506101406131758187018315159052565b959095015193019290925250919050565b60008060006060848603121561319b57600080fd5b6131a484612dac565b92506131b260208501612dac565b91506131c060408501612dac565b90509250925092565b600067ffffffffffffffff8311156131e3576131e3612ea2565b6131f6601f8401601f1916602001612eb8565b905082815283838301111561320a57600080fd5b828260208301376000602084830101529392505050565b600082601f83011261323257600080fd5b6129eb838335602085016131c9565b6000806040838503121561325457600080fd5b61325d83612e69565b9150602083013567ffffffffffffffff81111561327957600080fd5b61328585828601613221565b9150509250929050565b600080604083850312156132a257600080fd5b6132ab83612dac565b9150612e6060208401612fc4565b600080600080608085870312156132cf57600080fd5b6132d885612dac565b93506132e660208601612dac565b925060408501359150606085013567ffffffffffffffff81111561330957600080fd5b8501601f8101871361331a57600080fd5b613329878235602084016131c9565b91505092959194509250565b60008060006060848603121561334a57600080fd5b833592506131b260208501612dac565b6000806040838503121561336d57600080fd5b50508035926020909101359150565b6000806040838503121561338f57600080fd5b61339883612dac565b9150612e6060208401612dac565b6001600160a01b038c81168252600090610160906133c7602085018f61306e565b8160408501526133d98285018e612d54565b91506133e8606085018d613082565b8a60808501528960a085015280891660c085015280881660e0850152508281036101008401526134188187612d54565b941515610120840152505061014001529998505050505050505050565b600080600080600060a0868803121561344d57600080fd5b61345686612dac565b945061346460208701612e69565b9350604086013567ffffffffffffffff8082111561348157600080fd5b61348d89838a01613221565b945060608801359150808211156134a357600080fd5b6134af89838a01613221565b935060808801359150808211156134c557600080fd5b506134d288828901613221565b9150509295509295909350565b600181811c908216806134f357607f821691505b60208210810361122457634e487b7160e01b600052602260045260246000fd5b6020808252602d908201527f4552433732313a2063616c6c6572206973206e6f7420746f6b656e206f776e6560408201526c1c881bdc88185c1c1c9bdd9959609a1b606082015260800190565b6020808252600e908201526d139bdd08185d5d1a1bdc9a5e995960921b604082015260600190565b602080825260149082015273151bdad95b88191bd95cc81b9bdd08195e1a5cdd60621b604082015260600190565b602081016105d38284613082565b6bffffffffffffffffffffffff198360601b1681526000600383106135eb576135eb613058565b5060f89190911b6014820152601501919050565b634e487b7160e01b600052603260045260246000fd5b60006001820161363557634e487b7160e01b600052601160045260246000fd5b5060010190565b601f8211156107a757600081815260208120601f850160051c810160208610156136635750805b601f850160051c820191505b818110156136825782815560010161366f565b505050505050565b815167ffffffffffffffff8111156136a4576136a4612ea2565b6136b8816136b284546134df565b8461363c565b602080601f8311600181146136ed57600084156136d55750858301515b600019600386901b1c1916600185901b178555613682565b600085815260208120601f198616915b8281101561371c578886015182559484019460019091019084016136fd565b508582101561373a5787850151600019600388901b60f8161c191681555b5050505050600190811b01905550565b602081016105d3828461306e565b60208082526025908201527f4552433732313a207472616e736665722066726f6d20696e636f72726563742060408201526437bbb732b960d91b606082015260800190565b60208082526032908201527f4552433732313a207472616e7366657220746f206e6f6e20455243373231526560408201527131b2b4bb32b91034b6b83632b6b2b73a32b960711b606082015260800190565b60008351613801818460208801612d30565b835190830190613815818360208801612d30565b01949350505050565b6001600160a01b038581168252841660208201526040810183905260806060820181905260009061385190830184612d54565b9695505050505050565b60006020828403121561386d57600080fd5b81516129eb81612cfd56fea2646970667358221220cc2efbb710158fac814c35db2aa5c49351375236c4db056d162733c3143a56e464736f6c63430008140033",
  "immutableReferences": {},
  "source": "// SPDX-License-Identifier: MIT\r\npragma solidity ^0.8.20;\r\n\r\nimport \"@openzeppelin/contracts/token/ERC721/ERC721.sol\";\r\nimport \"@openzeppelin/contracts/token/ERC721/extensions/ERC721URIStorage.sol\";\r\nimport \"@openzeppelin/contracts/access/Ownable.sol\";\r\nimport \"@openzeppelin/contracts/utils/Counters.sol\";\r\n\r\ncontract OrganNFT is ERC721, ERC721URIStorage, Ownable {\r\n    using Counters for Counters.Counter;\r\n\r\n    Counters.Counter private _tokenIdCounter;\r\n\r\n    enum OrganType { Heart, Liver, Kidneys }\r\n    enum OrganStatus { Available, Matched, Transplanted, Expired, Rejected }\r\n\r\n    struct OrganMetadata {\r\n        address donorAddress;\r\n        OrganType organType;\r\n        string bloodType;\r\n        OrganStatus status;\r\n        uint256 donationTimestamp;\r\n        uint256 expiryTimestamp;\r\n        address assignedRecipient;\r\n        address assignedHospital;\r\n        string medicalDataHash;\r\n        bool isEmergency;\r\n        uint256 urgencyLevel;\r\n    }\r\n\r\n    mapping(uint256 => OrganMetadata) public organMetadata;\r\n    mapping(address => uint256[]) public donorOrgans;\r\n    mapping(address => uint256[]) public recipientAssignedOrgans;\r\n    mapping(bytes32 => uint256) public organHash;\r\n\r\n    address public donorContract;\r\n    address public recipientContract;\r\n    address public hospitalContract;\r\n\r\n    event OrganMinted(uint256 indexed tokenId, address indexed donor, OrganType organType);\r\n    event OrganMatched(uint256 indexed tokenId, address indexed recipient, address indexed hospital);\r\n    event OrganTransplanted(uint256 indexed tokenId, address indexed recipient);\r\n    event OrganExpired(uint256 indexed tokenId);\r\n    event OrganStatusUpdated(uint256 indexed tokenId, OrganStatus status);\r\n    event EmergencyStatusUpdated(uint256 indexed tokenId, bool isEmergency);\r\n\r\n    // Updated modifier to allow owner access even if contracts aren't set\r\n    modifier onlyAuthorized() {\r\n        require(\r\n            msg.sender == owner() || \r\n            (donorContract != address(0) && msg.sender == donorContract) || \r\n            (recipientContract != address(0) && msg.sender == recipientContract) || \r\n            (hospitalContract != address(0) && msg.sender == hospitalContract),\r\n            \"Not authorized\"\r\n        );\r\n        _;\r\n    }\r\n\r\n    modifier validTokenId(uint256 tokenId) {\r\n        require(_exists(tokenId), \"Token does not exist\");\r\n        _;\r\n    }\r\n\r\n    constructor() ERC721(\"OrganDonationNFT\", \"ORGAN\") {}\r\n\r\n    function setContractAddresses(\r\n        address _donorContract,\r\n        address _recipientContract,\r\n        address _hospitalContract\r\n    ) external onlyOwner {\r\n        donorContract = _donorContract;\r\n        recipientContract = _recipientContract;\r\n        hospitalContract = _hospitalContract;\r\n    }\r\n\r\n    function mintOrganNFT(\r\n        address donorAddress,\r\n        OrganType organType,\r\n        string memory bloodType,\r\n        string memory medicalDataHash,\r\n        string memory uri\r\n    ) external onlyAuthorized returns (uint256) {\r\n        uint256 tokenId = _tokenIdCounter.current();\r\n        _tokenIdCounter.increment();\r\n\r\n        bytes32 hash = keccak256(abi.encodePacked(donorAddress, organType));\r\n        require(organHash[hash] == 0, \"Organ already exists\");\r\n\r\n        _safeMint(donorAddress, tokenId);\r\n        _setTokenURI(tokenId, uri);\r\n\r\n        organMetadata[tokenId] = OrganMetadata({\r\n            donorAddress: donorAddress,\r\n            organType: organType,\r\n            bloodType: bloodType,\r\n            status: OrganStatus.Available,\r\n            donationTimestamp: block.timestamp,\r\n            expiryTimestamp: 0,\r\n            assignedRecipient: address(0),\r\n            assignedHospital: address(0),\r\n            medicalDataHash: medicalDataHash,\r\n            isEmergency: false,\r\n            urgencyLevel: 1\r\n        });\r\n\r\n        donorOrgans[donorAddress].push(tokenId);\r\n        organHash[hash] = tokenId;\r\n\r\n        emit OrganMinted(tokenId, donorAddress, organType);\r\n        return tokenId;\r\n    }\r\n\r\n    function matchOrgan(\r\n        uint256 tokenId,\r\n        address recipient,\r\n        address hospital\r\n    ) external onlyAuthorized validTokenId(tokenId) {\r\n        OrganMetadata storage organ = organMetadata[tokenId];\r\n        require(organ.status == OrganStatus.Available, \"Organ not available\");\r\n\r\n        organ.status = OrganStatus.Matched;\r\n        organ.assignedRecipient = recipient;\r\n        organ.assignedHospital = hospital;\r\n\r\n        recipientAssignedOrgans[recipient].push(tokenId);\r\n        emit OrganMatched(tokenId, recipient, hospital);\r\n    }\r\n\r\n    function markTransplanted(uint256 tokenId) \r\n        external \r\n        onlyAuthorized \r\n        validTokenId(tokenId) \r\n    {\r\n        OrganMetadata storage organ = organMetadata[tokenId];\r\n        require(organ.status == OrganStatus.Matched, \"Organ must be matched first\");\r\n        organ.status = OrganStatus.Transplanted;\r\n        emit OrganTransplanted(tokenId, organ.assignedRecipient);\r\n    }\r\n\r\n    function markExpired(uint256 tokenId) \r\n        external \r\n        onlyAuthorized \r\n        validTokenId(tokenId) \r\n    {\r\n        OrganMetadata storage organ = organMetadata[tokenId];\r\n        require(\r\n            organ.status == OrganStatus.Available || organ.status == OrganStatus.Matched, \r\n            \"Cannot expire transplanted organ\"\r\n        );\r\n        organ.status = OrganStatus.Expired;\r\n        emit OrganExpired(tokenId);\r\n    }\r\n\r\n    function setExpiryTimestamp(uint256 tokenId, uint256 expiryTime) \r\n        external \r\n        onlyAuthorized \r\n        validTokenId(tokenId) \r\n    {\r\n        organMetadata[tokenId].expiryTimestamp = expiryTime;\r\n    }\r\n\r\n    function setEmergencyStatus(uint256 tokenId, bool isEmergency, uint256 urgencyLevel) \r\n        external \r\n        onlyAuthorized \r\n        validTokenId(tokenId) \r\n    {\r\n        require(urgencyLevel >= 1 && urgencyLevel <= 10, \"Invalid urgency level\");\r\n        organMetadata[tokenId].isEmergency = isEmergency;\r\n        organMetadata[tokenId].urgencyLevel = urgencyLevel;\r\n        emit EmergencyStatusUpdated(tokenId, isEmergency);\r\n    }\r\n\r\n    function updateOrganStatus(uint256 tokenId, OrganStatus newStatus) \r\n        external \r\n        onlyAuthorized \r\n        validTokenId(tokenId) \r\n    {\r\n        organMetadata[tokenId].status = newStatus;\r\n        emit OrganStatusUpdated(tokenId, newStatus);\r\n    }\r\n\r\n    function getOrganMetadata(uint256 tokenId) \r\n        external \r\n        view \r\n        validTokenId(tokenId) \r\n        returns (OrganMetadata memory) \r\n    {\r\n        return organMetadata[tokenId];\r\n    }\r\n\r\n    function getDonorOrgans(address donor) external view returns (uint256[] memory) {\r\n        return donorOrgans[donor];\r\n    }\r\n\r\n    function getRecipientOrgans(address recipient) external view returns (uint256[] memory) {\r\n        return recipientAssignedOrgans[recipient];\r\n    }\r\n\r\n    function getOrganByDonorAndType(address donor, OrganType organType) \r\n        external \r\n        view \r\n        returns (uint256) \r\n    {\r\n        bytes32 hash = keccak256(abi.encodePacked(donor, organType));\r\n        return organHash[hash];\r\n    }\r\n\r\n    function getAvailableOrgans(OrganType organType, string memory bloodType) \r\n        external \r\n        view \r\n        returns (uint256[] memory) \r\n    {\r\n        uint256 totalSupply = _tokenIdCounter.current();\r\n        uint256[] memory tempTokens = new uint256[](totalSupply);\r\n        uint256 count = 0;\r\n\r\n        for (uint256 i = 0; i < totalSupply; i++) {\r\n            if (_exists(i)) {\r\n                OrganMetadata memory organ = organMetadata[i];\r\n                if (\r\n                    organ.organType == organType && \r\n                    organ.status == OrganStatus.Available &&\r\n                    _isBloodCompatible(organ.bloodType, bloodType)\r\n                ) {\r\n                    tempTokens[count] = i;\r\n                    count++;\r\n                }\r\n            }\r\n        }\r\n\r\n        uint256[] memory availableTokens = new uint256[](count);\r\n        for (uint256 i = 0; i < count; i++) {\r\n            availableTokens[i] = tempTokens[i];\r\n        }\r\n        return availableTokens;\r\n    }\r\n\r\n    function getTotalOrgans() external view returns (uint256) {\r\n        return _tokenIdCounter.current();\r\n    }\r\n\r\n    function _isBloodCompatible(string memory donorBlood, string memory recipientBlood) \r\n        internal \r\n        pure \r\n        returns (bool) \r\n    {\r\n        bytes32 donorHash = keccak256(bytes(donorBlood));\r\n        bytes32 recipientHash = keccak256(bytes(recipientBlood));\r\n        \r\n        if (donorHash == keccak256(bytes(\"O-\"))) return true;\r\n        if (recipientHash == keccak256(bytes(\"AB+\"))) return true;\r\n        if (donorHash == recipientHash) return true;\r\n        \r\n        return false;\r\n    }\r\n\r\n    function _burn(uint256 tokenId) internal override(ERC721, ERC721URIStorage) {\r\n        super._burn(tokenId);\r\n    }\r\n\r\n    function tokenURI(uint256 tokenId) \r\n        public \r\n        view \r\n        override(ERC721, ERC721URIStorage) \r\n        returns (string memory) \r\n    {\r\n        return super.tokenURI(tokenId);\r\n    }\r\n\r\n    function supportsInterface(bytes4 interfaceId) \r\n        public \r\n        view \r\n        override(ERC721, ERC721URIStorage) \r\n        returns (bool) \r\n    {\r\n        return super.supportsInterface(interfaceId);\r\n    }\r\n\r\n    function emergencyTransfer(uint256 tokenId, address to) \r\n        external \r\n        onlyOwner \r\n        validTokenId(tokenId) \r\n    {\r\n        address from = ownerOf(tokenId);\r\n        _transfer(from, to, tokenId);\r\n    }\r\n\r\n    function batchUpdateStatus(uint256[] memory tokenIds, OrganStatus newStatus) \r\n        external \r\n        onlyOwner \r\n    {\r\n        for (uint256 i = 0; i < tokenIds.length; i++) {\r\n            if (_exists(tokenIds[i])) {\r\n                organMetadata[tokenIds[i]].status = newStatus;\r\n                emit OrganStatusUpdated(tokenIds[i], newStatus);\r\n            }\r\n        }\r\n    }\r\n    function exists(uint256 tokenId) external view returns (bool) {\r\n    return _exists(tokenId);\r\n    }\r\n}",
  "sourcePath": "D:\\Coursera\\OrganDonationSystem31st August\\OrganDonationSystem\\contracts\\OrganNFT.sol",
  "compiler": {
    "name": "solc",
    "version": "0.8.20+commit.a1b79de6.Linux.g++"
  },
  "schemaVersion": "3.4.16",
  "updatedAt": "2025-09-15T09:24:23.505Z",
  "networkType": "ethereum",
  "devdoc": {
    "events": {
      "Approval(address,address,uint256)": {
        "details": "Emitted when `owner` enables `approved` to manage the `tokenId` token."
      },
      "ApprovalForAll(address,address,bool)": {
        "details": "Emitted when `owner` enables or disables (`approved`) `operator` to manage all of its assets."
      },
      "BatchMetadataUpdate(uint256,uint256)": {
        "details": "This event emits when the metadata of a range of tokens is changed. So that the third-party platforms such as NFT market could timely update the images and related attributes of the NFTs."
      },
      "MetadataUpdate(uint256)": {
        "details": "This event emits when the metadata of a token is changed. So that the third-party platforms such as NFT market could timely update the images and related attributes of the NFT."
      },
      "Transfer(address,address,uint256)": {
        "details": "Emitted when `tokenId` token is transferred from `from` to `to`."
      }
    },
    "kind": "dev",
    "methods": {
      "approve(address,uint256)": {
        "details": "See {IERC721-approve}."
      },
      "balanceOf(address)": {
        "details": "See {IERC721-balanceOf}."
      },
      "getApproved(uint256)": {
        "details": "See {IERC721-getApproved}."
      },
      "isApprovedForAll(address,address)": {
        "details": "See {IERC721-isApprovedForAll}."
      },
      "name()": {
        "details": "See {IERC721Metadata-name}."
      },
      "owner()": {
        "details": "Returns the address of the current owner."
      },
      "ownerOf(uint256)": {
        "details": "See {IERC721-ownerOf}."
      },
      "renounceOwnership()": {
        "details": "Leaves the contract without owner. It will not be possible to call `onlyOwner` functions. Can only be called by the current owner. NOTE: Renouncing ownership will leave the contract without an owner, thereby disabling any functionality that is only available to the owner."
      },
      "safeTransferFrom(address,address,uint256)": {
        "details": "See {IERC721-safeTransferFrom}."
      },
      "safeTransferFrom(address,address,uint256,bytes)": {
        "details": "See {IERC721-safeTransferFrom}."
      },
      "setApprovalForAll(address,bool)": {
        "details": "See {IERC721-setApprovalForAll}."
      },
      "symbol()": {
        "details": "See {IERC721Metadata-symbol}."
      },
      "transferFrom(address,address,uint256)": {
        "details": "See {IERC721-transferFrom}."
      },
      "transferOwnership(address)": {
        "details": "Transfers ownership of the contract to a new account (`newOwner`). Can only be called by the current owner."
      }
    },
    "version": 1
  },
  "userdoc": {
    "kind": "user",
    "methods": {},
    "version": 1
  }
}